{
  "address": "0x03E842bf6A612E991ED9740Bb2835ECF8C3Fe431",
  "abi": [
    {
      "anonymous": false,
      "inputs": [
        {
          "indexed": true,
          "internalType": "address",
          "name": "owner",
          "type": "address"
        },
        {
          "indexed": true,
          "internalType": "address",
          "name": "approved",
          "type": "address"
        },
        {
          "indexed": true,
          "internalType": "uint256",
          "name": "tokenId",
          "type": "uint256"
        }
      ],
      "name": "Approval",
      "type": "event"
    },
    {
      "anonymous": false,
      "inputs": [
        {
          "indexed": true,
          "internalType": "address",
          "name": "owner",
          "type": "address"
        },
        {
          "indexed": true,
          "internalType": "address",
          "name": "operator",
          "type": "address"
        },
        {
          "indexed": false,
          "internalType": "bool",
          "name": "approved",
          "type": "bool"
        }
      ],
      "name": "ApprovalForAll",
      "type": "event"
    },
    {
      "anonymous": false,
      "inputs": [
        {
          "indexed": false,
          "internalType": "uint8",
          "name": "version",
          "type": "uint8"
        }
      ],
      "name": "Initialized",
      "type": "event"
    },
    {
      "anonymous": false,
      "inputs": [
        {
          "indexed": true,
          "internalType": "bytes32",
          "name": "role",
          "type": "bytes32"
        },
        {
          "indexed": true,
          "internalType": "bytes32",
          "name": "previousAdminRole",
          "type": "bytes32"
        },
        {
          "indexed": true,
          "internalType": "bytes32",
          "name": "newAdminRole",
          "type": "bytes32"
        }
      ],
      "name": "RoleAdminChanged",
      "type": "event"
    },
    {
      "anonymous": false,
      "inputs": [
        {
          "indexed": true,
          "internalType": "bytes32",
          "name": "role",
          "type": "bytes32"
        },
        {
          "indexed": true,
          "internalType": "address",
          "name": "account",
          "type": "address"
        },
        {
          "indexed": true,
          "internalType": "address",
          "name": "sender",
          "type": "address"
        }
      ],
      "name": "RoleGranted",
      "type": "event"
    },
    {
      "anonymous": false,
      "inputs": [
        {
          "indexed": true,
          "internalType": "bytes32",
          "name": "role",
          "type": "bytes32"
        },
        {
          "indexed": true,
          "internalType": "address",
          "name": "account",
          "type": "address"
        },
        {
          "indexed": true,
          "internalType": "address",
          "name": "sender",
          "type": "address"
        }
      ],
      "name": "RoleRevoked",
      "type": "event"
    },
    {
      "anonymous": false,
      "inputs": [
        {
          "indexed": true,
          "internalType": "address",
          "name": "from",
          "type": "address"
        },
        {
          "indexed": true,
          "internalType": "address",
          "name": "to",
          "type": "address"
        },
        {
          "indexed": true,
          "internalType": "uint256",
          "name": "tokenId",
          "type": "uint256"
        }
      ],
      "name": "Transfer",
      "type": "event"
    },
    {
      "inputs": [],
      "name": "DEFAULT_ADMIN_ROLE",
      "outputs": [
        {
          "internalType": "bytes32",
          "name": "",
          "type": "bytes32"
        }
      ],
      "stateMutability": "view",
      "type": "function"
    },
    {
      "inputs": [],
      "name": "INDEX_ID",
      "outputs": [
        {
          "internalType": "uint32",
          "name": "",
          "type": "uint32"
        }
      ],
      "stateMutability": "view",
      "type": "function"
    },
    {
      "inputs": [],
      "name": "MINTER_ROLE",
      "outputs": [
        {
          "internalType": "bytes32",
          "name": "",
          "type": "bytes32"
        }
      ],
      "stateMutability": "view",
      "type": "function"
    },
    {
      "inputs": [],
      "name": "anyaToken",
      "outputs": [
        {
          "internalType": "contract ISuperToken",
          "name": "",
          "type": "address"
        }
      ],
      "stateMutability": "view",
      "type": "function"
    },
    {
      "inputs": [
        {
          "internalType": "address",
          "name": "to",
          "type": "address"
        },
        {
          "internalType": "uint256",
          "name": "tokenId",
          "type": "uint256"
        }
      ],
      "name": "approve",
      "outputs": [],
      "stateMutability": "nonpayable",
      "type": "function"
    },
    {
      "inputs": [],
      "name": "balance",
      "outputs": [
        {
          "internalType": "uint256",
          "name": "",
          "type": "uint256"
        }
      ],
      "stateMutability": "view",
      "type": "function"
    },
    {
      "inputs": [
        {
          "internalType": "address",
          "name": "owner",
          "type": "address"
        }
      ],
      "name": "balanceOf",
      "outputs": [
        {
          "internalType": "uint256",
          "name": "",
          "type": "uint256"
        }
      ],
      "stateMutability": "view",
      "type": "function"
    },
    {
      "inputs": [
        {
          "internalType": "uint256",
          "name": "_tokenId",
          "type": "uint256"
        }
      ],
      "name": "burn",
      "outputs": [],
      "stateMutability": "nonpayable",
      "type": "function"
    },
    {
      "inputs": [],
      "name": "distribute",
      "outputs": [],
      "stateMutability": "nonpayable",
      "type": "function"
    },
    {
      "inputs": [
        {
          "internalType": "uint256",
          "name": "tokenId",
          "type": "uint256"
        }
      ],
      "name": "getApproved",
      "outputs": [
        {
          "internalType": "address",
          "name": "",
          "type": "address"
        }
      ],
      "stateMutability": "view",
      "type": "function"
    },
    {
      "inputs": [
        {
          "internalType": "bytes32",
          "name": "role",
          "type": "bytes32"
        }
      ],
      "name": "getRoleAdmin",
      "outputs": [
        {
          "internalType": "bytes32",
          "name": "",
          "type": "bytes32"
        }
      ],
      "stateMutability": "view",
      "type": "function"
    },
    {
      "inputs": [
        {
          "internalType": "bytes32",
          "name": "role",
          "type": "bytes32"
        },
        {
          "internalType": "address",
          "name": "account",
          "type": "address"
        }
      ],
      "name": "grantRole",
      "outputs": [],
      "stateMutability": "nonpayable",
      "type": "function"
    },
    {
      "inputs": [
        {
          "internalType": "bytes32",
          "name": "role",
          "type": "bytes32"
        },
        {
          "internalType": "address",
          "name": "account",
          "type": "address"
        }
      ],
      "name": "hasRole",
      "outputs": [
        {
          "internalType": "bool",
          "name": "",
          "type": "bool"
        }
      ],
      "stateMutability": "view",
      "type": "function"
    },
    {
      "inputs": [],
      "name": "idaV1",
      "outputs": [
        {
          "internalType": "contract ISuperfluid",
          "name": "host",
          "type": "address"
        },
        {
          "internalType": "contract IInstantDistributionAgreementV1",
          "name": "ida",
          "type": "address"
        }
      ],
      "stateMutability": "view",
      "type": "function"
    },
    {
      "inputs": [
        {
          "internalType": "contract ISuperfluid",
          "name": "_host",
          "type": "address"
        },
        {
          "internalType": "contract ISuperToken",
          "name": "_anyaToken",
          "type": "address"
        }
      ],
      "name": "initialize",
      "outputs": [],
      "stateMutability": "nonpayable",
      "type": "function"
    },
    {
      "inputs": [
        {
          "internalType": "address",
          "name": "owner",
          "type": "address"
        },
        {
          "internalType": "address",
          "name": "operator",
          "type": "address"
        }
      ],
      "name": "isApprovedForAll",
      "outputs": [
        {
          "internalType": "bool",
          "name": "",
          "type": "bool"
        }
      ],
      "stateMutability": "view",
      "type": "function"
    },
    {
      "inputs": [
        {
          "internalType": "address",
          "name": "_receiver",
          "type": "address"
        },
        {
          "internalType": "string",
          "name": "_tokenURI",
          "type": "string"
        }
      ],
      "name": "mint",
      "outputs": [],
      "stateMutability": "nonpayable",
      "type": "function"
    },
    {
      "inputs": [],
      "name": "name",
      "outputs": [
        {
          "internalType": "string",
          "name": "",
          "type": "string"
        }
      ],
      "stateMutability": "view",
      "type": "function"
    },
    {
      "inputs": [
        {
          "internalType": "uint256",
          "name": "tokenId",
          "type": "uint256"
        }
      ],
      "name": "ownerOf",
      "outputs": [
        {
          "internalType": "address",
          "name": "",
          "type": "address"
        }
      ],
      "stateMutability": "view",
      "type": "function"
    },
    {
      "inputs": [
        {
          "internalType": "bytes32",
          "name": "role",
          "type": "bytes32"
        },
        {
          "internalType": "address",
          "name": "account",
          "type": "address"
        }
      ],
      "name": "renounceRole",
      "outputs": [],
      "stateMutability": "nonpayable",
      "type": "function"
    },
    {
      "inputs": [
        {
          "internalType": "bytes32",
          "name": "role",
          "type": "bytes32"
        },
        {
          "internalType": "address",
          "name": "account",
          "type": "address"
        }
      ],
      "name": "revokeRole",
      "outputs": [],
      "stateMutability": "nonpayable",
      "type": "function"
    },
    {
      "inputs": [
        {
          "internalType": "address",
          "name": "from",
          "type": "address"
        },
        {
          "internalType": "address",
          "name": "to",
          "type": "address"
        },
        {
          "internalType": "uint256",
          "name": "tokenId",
          "type": "uint256"
        }
      ],
      "name": "safeTransferFrom",
      "outputs": [],
      "stateMutability": "nonpayable",
      "type": "function"
    },
    {
      "inputs": [
        {
          "internalType": "address",
          "name": "from",
          "type": "address"
        },
        {
          "internalType": "address",
          "name": "to",
          "type": "address"
        },
        {
          "internalType": "uint256",
          "name": "tokenId",
          "type": "uint256"
        },
        {
          "internalType": "bytes",
          "name": "_data",
          "type": "bytes"
        }
      ],
      "name": "safeTransferFrom",
      "outputs": [],
      "stateMutability": "nonpayable",
      "type": "function"
    },
    {
      "inputs": [
        {
          "internalType": "address",
          "name": "operator",
          "type": "address"
        },
        {
          "internalType": "bool",
          "name": "approved",
          "type": "bool"
        }
      ],
      "name": "setApprovalForAll",
      "outputs": [],
      "stateMutability": "nonpayable",
      "type": "function"
    },
    {
      "inputs": [
        {
          "internalType": "bytes4",
          "name": "interfaceId",
          "type": "bytes4"
        }
      ],
      "name": "supportsInterface",
      "outputs": [
        {
          "internalType": "bool",
          "name": "",
          "type": "bool"
        }
      ],
      "stateMutability": "view",
      "type": "function"
    },
    {
      "inputs": [],
      "name": "symbol",
      "outputs": [
        {
          "internalType": "string",
          "name": "",
          "type": "string"
        }
      ],
      "stateMutability": "view",
      "type": "function"
    },
    {
      "inputs": [
        {
          "internalType": "uint256",
          "name": "tokenId",
          "type": "uint256"
        }
      ],
      "name": "tokenURI",
      "outputs": [
        {
          "internalType": "string",
          "name": "",
          "type": "string"
        }
      ],
      "stateMutability": "view",
      "type": "function"
    },
    {
      "inputs": [
        {
          "internalType": "address",
          "name": "from",
          "type": "address"
        },
        {
          "internalType": "address",
          "name": "to",
          "type": "address"
        },
        {
          "internalType": "uint256",
          "name": "tokenId",
          "type": "uint256"
        }
      ],
      "name": "transferFrom",
      "outputs": [],
      "stateMutability": "nonpayable",
      "type": "function"
    }
  ],
  "transactionHash": "0x94572481ab2899099772f649e704d243318afa90bd78424064ed2c7d02e24eb8",
  "args": [],
  "numDeployments": 1,
  "solcInputHash": "2f866c28ee3afc2f4165b3eb956a9322",
  "bytecode": "0x608060405260fe805463ffffffff60a01b1916905534801561002057600080fd5b50613016806100306000396000f3fe608060405234801561001057600080fd5b50600436106101c45760003560e01c80638c7f0959116100f9578063c87b56dd11610097578063d539139311610071578063d539139314610425578063d547741f1461044c578063e4fc6b6d1461045f578063e985e9c51461046757600080fd5b8063c87b56dd146103ec578063d0def521146103ff578063d11c5f4b1461041257600080fd5b8063a217fddf116100d3578063a217fddf146103b6578063a22cb465146103be578063b69ef8a8146103d1578063b88d4fde146103d957600080fd5b80638c7f09591461034957806391d148541461037557806395d89b41146103ae57600080fd5b80632f2ff15d1161016657806342966c681161014057806342966c68146102fd578063485cc955146103105780636352211e1461032357806370a082311461033657600080fd5b80632f2ff15d146102c457806336568abe146102d757806342842e0e146102ea57600080fd5b8063095ea7b3116101a2578063095ea7b3146102315780631cc8ca991461024657806323b872dd14610280578063248a9ca31461029357600080fd5b806301ffc9a7146101c957806306fdde03146101f1578063081812fc14610206575b600080fd5b6101dc6101d736600461283b565b6104a3565b60405190151581526020015b60405180910390f35b6101f96104b4565b6040516101e891906128b0565b6102196102143660046128c3565b610546565b6040516001600160a01b0390911681526020016101e8565b61024461023f3660046128f1565b61056d565b005b60fc5460fd54610260916001600160a01b03908116911682565b604080516001600160a01b039384168152929091166020830152016101e8565b61024461028e36600461291d565b610687565b6102b66102a13660046128c3565b600090815260c9602052604090206001015490565b6040519081526020016101e8565b6102446102d236600461295e565b610901565b6102446102e536600461295e565b610926565b6102446102f836600461291d565b6109b2565b61024461030b3660046128c3565b6109cd565b61024461031e36600461298e565b610b2a565b6102196103313660046128c3565b610f70565b6102b66103443660046129bc565b610fd5565b60fe5461036090600160a01b900463ffffffff1681565b60405163ffffffff90911681526020016101e8565b6101dc61038336600461295e565b600091825260c9602090815260408084206001600160a01b0393909316845291905290205460ff1690565b6101f961105b565b6102b6600081565b6102446103cc3660046129d9565b61106a565b6102b6611075565b6102446103e7366004612a7b565b6110e7565b6101f96103fa3660046128c3565b611363565b61024461040d366004612b2a565b611473565b60fe54610219906001600160a01b031681565b6102b67f9f2df0fed2c77648de5860a4cc508cd0818c85b8b8a1ab4ceeef8d981c8956a681565b61024461045a36600461295e565b61168a565b6102446116af565b6101dc61047536600461298e565b6001600160a01b039182166000908152606a6020908152604080832093909416825291909152205460ff1690565b60006104ae82611871565b92915050565b6060606580546104c390612baf565b80601f01602080910402602001604051908101604052809291908181526020018280546104ef90612baf565b801561053c5780601f106105115761010080835404028352916020019161053c565b820191906000526020600020905b81548152906001019060200180831161051f57829003601f168201915b5050505050905090565b600061055182611896565b506000908152606960205260409020546001600160a01b031690565b600061057882610f70565b9050806001600160a01b0316836001600160a01b0316036105ea5760405162461bcd60e51b815260206004820152602160248201527f4552433732313a20617070726f76616c20746f2063757272656e74206f776e656044820152603960f91b60648201526084015b60405180910390fd5b336001600160a01b038216148061060657506106068133610475565b6106785760405162461bcd60e51b815260206004820152603e60248201527f4552433732313a20617070726f76652063616c6c6572206973206e6f7420746f60448201527f6b656e206f776e6572206e6f7220617070726f76656420666f7220616c6c000060648201526084016105e1565b61068283836118fd565b505050565b610691338261196b565b6106f75760405162461bcd60e51b815260206004820152603160248201527f4552433732313a207472616e736665722063616c6c6572206973206e6f74206f6044820152701ddb995c881b9bdc88185c1c1c9bdd9959607a1b60648201526084016105e1565b6107028383836119e9565b60fc5460fd5460fe546001600160a01b03928316926339255d5b92811691630465a56b60e31b91811690600160a01b900463ffffffff168761074381610fd5565b604080516000815260208101909152610763949392919060448101612be9565b60408051601f19818403018152918152602080830180516001600160e01b03166001600160e01b03199586161790528151600081529081019182905260e086901b90931690526107b7929160248101612c32565b6000604051808303816000875af11580156107d6573d6000803e3d6000fd5b505050506040513d6000823e601f3d908101601f191682016040526107fe9190810190612c70565b5060fc5460fd5460fe546001600160a01b03928316926339255d5b92811691630465a56b60e31b91811690600160a01b900463ffffffff168861084081610fd5565b604080516000815260208101909152610860949392919060448101612be9565b60408051601f19818403018152918152602080830180516001600160e01b03166001600160e01b03199586161790528151600081529081019182905260e086901b90931690526108b4929160248101612c32565b6000604051808303816000875af11580156108d3573d6000803e3d6000fd5b505050506040513d6000823e601f3d908101601f191682016040526108fb9190810190612c70565b50505050565b600082815260c9602052604090206001015461091c81611b85565b6106828383611b8f565b6001600160a01b03811633146109a45760405162461bcd60e51b815260206004820152602f60248201527f416363657373436f6e74726f6c3a2063616e206f6e6c792072656e6f756e636560448201527f20726f6c657320666f722073656c66000000000000000000000000000000000060648201526084016105e1565b6109ae8282611c31565b5050565b610702838383604051806020016040528060008152506110e7565b336109d782610f70565b6001600160a01b031614610a2d5760405162461bcd60e51b815260206004820181905260248201527f4552433732313a206275726e2063616c6c6572206973206e6f74206f776e657260448201526064016105e1565b610a3681611cb4565b60fc5460fd5460fe546040805160008152602081019091526001600160a01b03938416936339255d5b9381169263172f3a6360e11b92610a8f928216913091600160a01b90910463ffffffff1690339060448101612ce7565b60408051601f19818403018152918152602080830180516001600160e01b03166001600160e01b03199586161790528151600081529081019182905260e086901b9093169052610ae3929160248101612c32565b6000604051808303816000875af1158015610b02573d6000803e3d6000fd5b505050506040513d6000823e601f3d908101601f191682016040526109ae9190810190612c70565b600054610100900460ff1615808015610b4a5750600054600160ff909116105b80610b645750303b158015610b64575060005460ff166001145b610bd65760405162461bcd60e51b815260206004820152602e60248201527f496e697469616c697a61626c653a20636f6e747261637420697320616c72656160448201527f647920696e697469616c697a656400000000000000000000000000000000000060648201526084016105e1565b6000805460ff191660011790558015610bf9576000805461ff0019166101001790555b610c3e60405180604001604052806009815260200168416e7961566572736560b81b8152506040518060400160405280600281526020016120ab60f11b815250611cf4565b816001600160a01b03166320bc44256040518163ffffffff1660e01b8152600401602060405180830381865afa158015610c7c573d6000803e3d6000fd5b505050506040513d601f19601f82011682018060405250810190610ca09190612d27565b6001600160a01b0316836001600160a01b031614610cee5760405162461bcd60e51b815260206004820152600b60248201526a10b9bab832b92a37b5b2b760a91b60448201526064016105e1565b610d187f9f2df0fed2c77648de5860a4cc508cd0818c85b8b8a1ab4ceeef8d981c8956a680611d69565b610d23600080611d69565b610d4d7f9f2df0fed2c77648de5860a4cc508cd0818c85b8b8a1ab4ceeef8d981c8956a633611b8f565b610d58600033611b8f565b60fe80546001600160a01b0319166001600160a01b03848116919091179091556040805180820182529185168083529051635b69006f60e11b81527f8aedc3b5d4bf031e11a7e2940f7251c005698405d58e02e1c247fed3b1b3a674600482015260208301919063b6d200de90602401602060405180830381865afa158015610de5573d6000803e3d6000fd5b505050506040513d601f19601f82011682018060405250810190610e099190612d27565b6001600160a01b03908116909152815160fc80546001600160a01b031990811692841692831790915560209384015160fd805490921690841690811790915560fe546040805160008152958601905291936339255d5b939192636bc3c20560e11b92610e8a9290821691600160a01b900463ffffffff169060448101612d44565b60408051601f19818403018152918152602080830180516001600160e01b03166001600160e01b03199586161790528151600081529081019182905260e086901b9093169052610ede929160248101612c32565b6000604051808303816000875af1158015610efd573d6000803e3d6000fd5b505050506040513d6000823e601f3d908101601f19168201604052610f259190810190612c70565b508015610682576000805461ff0019169055604051600181527f7f26b83ff96e1f2b6a682f133852f6798a09c465da95921460cefb38474024989060200160405180910390a1505050565b6000818152606760205260408120546001600160a01b0316806104ae5760405162461bcd60e51b815260206004820152601860248201527f4552433732313a20696e76616c696420746f6b656e204944000000000000000060448201526064016105e1565b60006001600160a01b03821661103f5760405162461bcd60e51b815260206004820152602960248201527f4552433732313a2061646472657373207a65726f206973206e6f7420612076616044820152683634b21037bbb732b960b91b60648201526084016105e1565b506001600160a01b031660009081526068602052604090205490565b6060606680546104c390612baf565b6109ae338383611db4565b60fe546040516370a0823160e01b81523060048201526000916001600160a01b0316906370a0823190602401602060405180830381865afa1580156110be573d6000803e3d6000fd5b505050506040513d601f19601f820116820180604052508101906110e29190612d72565b905090565b6110f1338361196b565b6111575760405162461bcd60e51b815260206004820152603160248201527f4552433732313a207472616e736665722063616c6c6572206973206e6f74206f6044820152701ddb995c881b9bdc88185c1c1c9bdd9959607a1b60648201526084016105e1565b61116384848484611e82565b60fc5460fd5460fe546001600160a01b03928316926339255d5b92811691630465a56b60e31b91811690600160a01b900463ffffffff16886111a481610fd5565b6040805160008152602081019091526111c4949392919060448101612be9565b60408051601f19818403018152918152602080830180516001600160e01b03166001600160e01b03199586161790528151600081529081019182905260e086901b9093169052611218929160248101612c32565b6000604051808303816000875af1158015611237573d6000803e3d6000fd5b505050506040513d6000823e601f3d908101601f1916820160405261125f9190810190612c70565b5060fc5460fd5460fe546001600160a01b03928316926339255d5b92811691630465a56b60e31b91811690600160a01b900463ffffffff16896112a181610fd5565b6040805160008152602081019091526112c1949392919060448101612be9565b60408051601f19818403018152918152602080830180516001600160e01b03166001600160e01b03199586161790528151600081529081019182905260e086901b9093169052611315929160248101612c32565b6000604051808303816000875af1158015611334573d6000803e3d6000fd5b505050506040513d6000823e601f3d908101601f1916820160405261135c9190810190612c70565b5050505050565b606061136e82611896565b6000828152609760205260408120805461138790612baf565b80601f01602080910402602001604051908101604052809291908181526020018280546113b390612baf565b80156114005780601f106113d557610100808354040283529160200191611400565b820191906000526020600020905b8154815290600101906020018083116113e357829003601f168201915b50505050509050600061141e60408051602081019091526000815290565b90508051600003611430575092915050565b81511561146257808260405160200161144a929190612d8b565b60405160208183030381529060405292505050919050565b61146b84611f00565b949350505050565b7f9f2df0fed2c77648de5860a4cc508cd0818c85b8b8a1ab4ceeef8d981c8956a661149e8133610383565b806114af57506114af600033610383565b6115215760405162461bcd60e51b815260206004820152603860248201527f416363657373436f6e74726f6c3a206d697373696e672072657175697265642060448201527f726f6c65206f722073757065722061646d696e20726f6c65000000000000000060648201526084016105e1565b61152f60fb80546001019055565b600061153a60fb5490565b90506115468582611f74565b6115868185858080601f0160208091040260200160405190810160405280939291908181526020018383808284376000920191909152506120b692505050565b60fc5460fd5460fe546001600160a01b03928316926339255d5b92811691630465a56b60e31b91811690600160a01b900463ffffffff168a6115c781610fd5565b6040805160008152602081019091526115e7949392919060448101612be9565b60408051601f19818403018152918152602080830180516001600160e01b03166001600160e01b03199586161790528151600081529081019182905260e086901b909316905261163b929160248101612c32565b6000604051808303816000875af115801561165a573d6000803e3d6000fd5b505050506040513d6000823e601f3d908101601f191682016040526116829190810190612c70565b505050505050565b600082815260c960205260409020600101546116a581611b85565b6106828383611c31565b60006116ba81611b85565b60006116c560fb5490565b116117125760405162461bcd60e51b815260206004820152601060248201527f4e6f20746f6b656e20686f6c646572730000000000000000000000000000000060448201526064016105e1565b60fe546040516370a0823160e01b81523060048201526000916001600160a01b0316906370a0823190602401602060405180830381865afa15801561175b573d6000803e3d6000fd5b505050506040513d601f19601f8201168201806040525081019061177f9190612d72565b60fd5460fe54604051632266eabb60e21b81526001600160a01b038083166004830152306024830152600160a01b90920463ffffffff1660448201526064810184905292935060009291169063899baaec906084016040805180830381865afa1580156117f0573d6000803e3d6000fd5b505050506040513d601f19601f820116820180604052508101906118149190612dba565b5060fc5460fd5460fe546040805160008152602081019091529394506001600160a01b03928316936339255d5b9392831692635cb398e160e11b926108609291811691600160a01b90910463ffffffff1690889060448101612df4565b60006001600160e01b03198216637965db0b60e01b14806104ae57506104ae8261215f565b6000818152606760205260409020546001600160a01b03166118fa5760405162461bcd60e51b815260206004820152601860248201527f4552433732313a20696e76616c696420746f6b656e204944000000000000000060448201526064016105e1565b50565b600081815260696020526040902080546001600160a01b0319166001600160a01b038416908117909155819061193282610f70565b6001600160a01b03167f8c5be1e5ebec7d5bd14f71427d1e84f3dd0314c0f7b2291e5b200ac8c7c3b92560405160405180910390a45050565b60008061197783610f70565b9050806001600160a01b0316846001600160a01b031614806119be57506001600160a01b038082166000908152606a602090815260408083209388168352929052205460ff165b8061146b5750836001600160a01b03166119d784610546565b6001600160a01b031614949350505050565b826001600160a01b03166119fc82610f70565b6001600160a01b031614611a605760405162461bcd60e51b815260206004820152602560248201527f4552433732313a207472616e736665722066726f6d20696e636f72726563742060448201526437bbb732b960d91b60648201526084016105e1565b6001600160a01b038216611ac25760405162461bcd60e51b8152602060048201526024808201527f4552433732313a207472616e7366657220746f20746865207a65726f206164646044820152637265737360e01b60648201526084016105e1565b611acd6000826118fd565b6001600160a01b0383166000908152606860205260408120805460019290611af6908490612e3e565b90915550506001600160a01b0382166000908152606860205260408120805460019290611b24908490612e55565b909155505060008181526067602052604080822080546001600160a01b0319166001600160a01b0386811691821790925591518493918716917fddf252ad1be2c89b69c2b068fc378daa952ba7f163c4a11628f55a4df523b3ef91a4505050565b6118fa81336121af565b600082815260c9602090815260408083206001600160a01b038516845290915290205460ff166109ae57600082815260c9602090815260408083206001600160a01b03851684529091529020805460ff19166001179055611bed3390565b6001600160a01b0316816001600160a01b0316837f2f8788117e7eff1d82e926ec794901d17c78024a50270940304540a733656f0d60405160405180910390a45050565b600082815260c9602090815260408083206001600160a01b038516845290915290205460ff16156109ae57600082815260c9602090815260408083206001600160a01b0385168085529252808320805460ff1916905551339285917ff6391f5c32d9c69d2a47ea670b442974b53935d1edc7fd64eb21e047a839171b9190a45050565b611cbd8161222f565b60008181526097602052604090208054611cd690612baf565b1590506118fa5760008181526097602052604081206118fa91612752565b600054610100900460ff16611d5f5760405162461bcd60e51b815260206004820152602b60248201527f496e697469616c697a61626c653a20636f6e7472616374206973206e6f74206960448201526a6e697469616c697a696e6760a81b60648201526084016105e1565b6109ae82826122ca565b600082815260c96020526040808220600101805490849055905190918391839186917fbd79b86ffe0ab8e8776151514217cd7cacd52c909f66475c3af44e129f0b00ff9190a4505050565b816001600160a01b0316836001600160a01b031603611e155760405162461bcd60e51b815260206004820152601960248201527f4552433732313a20617070726f766520746f2063616c6c65720000000000000060448201526064016105e1565b6001600160a01b038381166000818152606a6020908152604080832094871680845294825291829020805460ff191686151590811790915591519182527f17307eab39ab6107e8899845ad3d59bd9653f200f220920489ca2b5937696c31910160405180910390a3505050565b611e8d8484846119e9565b611e998484848461235c565b6108fb5760405162461bcd60e51b815260206004820152603260248201527f4552433732313a207472616e7366657220746f206e6f6e20455243373231526560448201527131b2b4bb32b91034b6b83632b6b2b73a32b960711b60648201526084016105e1565b6060611f0b82611896565b6000611f2260408051602081019091526000815290565b90506000815111611f425760405180602001604052806000815250611f6d565b80611f4c846124a8565b604051602001611f5d929190612d8b565b6040516020818303038152906040525b9392505050565b6001600160a01b038216611fca5760405162461bcd60e51b815260206004820181905260248201527f4552433732313a206d696e7420746f20746865207a65726f206164647265737360448201526064016105e1565b6000818152606760205260409020546001600160a01b03161561202f5760405162461bcd60e51b815260206004820152601c60248201527f4552433732313a20746f6b656e20616c7265616479206d696e7465640000000060448201526064016105e1565b6001600160a01b0382166000908152606860205260408120805460019290612058908490612e55565b909155505060008181526067602052604080822080546001600160a01b0319166001600160a01b03861690811790915590518392907fddf252ad1be2c89b69c2b068fc378daa952ba7f163c4a11628f55a4df523b3ef908290a45050565b6000828152606760205260409020546001600160a01b03166121405760405162461bcd60e51b815260206004820152602e60248201527f45524337323155524953746f726167653a2055524920736574206f66206e6f6e60448201527f6578697374656e7420746f6b656e00000000000000000000000000000000000060648201526084016105e1565b600082815260976020908152604090912082516106829284019061278c565b60006001600160e01b031982166380ac58cd60e01b148061219057506001600160e01b03198216635b5e139f60e01b145b806104ae57506301ffc9a760e01b6001600160e01b03198316146104ae565b600082815260c9602090815260408083206001600160a01b038516845290915290205460ff166109ae576121ed816001600160a01b031660146125a9565b6121f88360206125a9565b604051602001612209929190612e6d565b60408051601f198184030181529082905262461bcd60e51b82526105e1916004016128b0565b600061223a82610f70565b90506122476000836118fd565b6001600160a01b0381166000908152606860205260408120805460019290612270908490612e3e565b909155505060008281526067602052604080822080546001600160a01b0319169055518391906001600160a01b038416907fddf252ad1be2c89b69c2b068fc378daa952ba7f163c4a11628f55a4df523b3ef908390a45050565b600054610100900460ff166123355760405162461bcd60e51b815260206004820152602b60248201527f496e697469616c697a61626c653a20636f6e7472616374206973206e6f74206960448201526a6e697469616c697a696e6760a81b60648201526084016105e1565b815161234890606590602085019061278c565b50805161068290606690602084019061278c565b60006001600160a01b0384163b1561249d57604051630a85bd0160e11b81526001600160a01b0385169063150b7a02906123a0903390899088908890600401612eee565b6020604051808303816000875af19250505080156123db575060408051601f3d908101601f191682019092526123d891810190612f20565b60015b612483573d808015612409576040519150601f19603f3d011682016040523d82523d6000602084013e61240e565b606091505b50805160000361247b5760405162461bcd60e51b815260206004820152603260248201527f4552433732313a207472616e7366657220746f206e6f6e20455243373231526560448201527131b2b4bb32b91034b6b83632b6b2b73a32b960711b60648201526084016105e1565b805181602001fd5b6001600160e01b031916630a85bd0160e11b14905061146b565b506001949350505050565b6060816000036124cf5750506040805180820190915260018152600360fc1b602082015290565b8160005b81156124f957806124e381612f3d565b91506124f29050600a83612f6c565b91506124d3565b60008167ffffffffffffffff81111561251457612514612a0c565b6040519080825280601f01601f19166020018201604052801561253e576020820181803683370190505b5090505b841561146b57612553600183612e3e565b9150612560600a86612f80565b61256b906030612e55565b60f81b81838151811061258057612580612f94565b60200101906001600160f81b031916908160001a9053506125a2600a86612f6c565b9450612542565b606060006125b8836002612faa565b6125c3906002612e55565b67ffffffffffffffff8111156125db576125db612a0c565b6040519080825280601f01601f191660200182016040528015612605576020820181803683370190505b509050600360fc1b8160008151811061262057612620612f94565b60200101906001600160f81b031916908160001a905350600f60fb1b8160018151811061264f5761264f612f94565b60200101906001600160f81b031916908160001a9053506000612673846002612faa565b61267e906001612e55565b90505b6001811115612703577f303132333435363738396162636465660000000000000000000000000000000085600f16601081106126bf576126bf612f94565b1a60f81b8282815181106126d5576126d5612f94565b60200101906001600160f81b031916908160001a90535060049490941c936126fc81612fc9565b9050612681565b508315611f6d5760405162461bcd60e51b815260206004820181905260248201527f537472696e67733a20686578206c656e67746820696e73756666696369656e7460448201526064016105e1565b50805461275e90612baf565b6000825580601f1061276e575050565b601f0160209004906000526020600020908101906118fa9190612810565b82805461279890612baf565b90600052602060002090601f0160209004810192826127ba5760008555612800565b82601f106127d357805160ff1916838001178555612800565b82800160010185558215612800579182015b828111156128005782518255916020019190600101906127e5565b5061280c929150612810565b5090565b5b8082111561280c5760008155600101612811565b6001600160e01b0319811681146118fa57600080fd5b60006020828403121561284d57600080fd5b8135611f6d81612825565b60005b8381101561287357818101518382015260200161285b565b838111156108fb5750506000910152565b6000815180845261289c816020860160208601612858565b601f01601f19169290920160200192915050565b602081526000611f6d6020830184612884565b6000602082840312156128d557600080fd5b5035919050565b6001600160a01b03811681146118fa57600080fd5b6000806040838503121561290457600080fd5b823561290f816128dc565b946020939093013593505050565b60008060006060848603121561293257600080fd5b833561293d816128dc565b9250602084013561294d816128dc565b929592945050506040919091013590565b6000806040838503121561297157600080fd5b823591506020830135612983816128dc565b809150509250929050565b600080604083850312156129a157600080fd5b82356129ac816128dc565b91506020830135612983816128dc565b6000602082840312156129ce57600080fd5b8135611f6d816128dc565b600080604083850312156129ec57600080fd5b82356129f7816128dc565b91506020830135801515811461298357600080fd5b634e487b7160e01b600052604160045260246000fd5b604051601f8201601f1916810167ffffffffffffffff81118282101715612a4b57612a4b612a0c565b604052919050565b600067ffffffffffffffff821115612a6d57612a6d612a0c565b50601f01601f191660200190565b60008060008060808587031215612a9157600080fd5b8435612a9c816128dc565b93506020850135612aac816128dc565b925060408501359150606085013567ffffffffffffffff811115612acf57600080fd5b8501601f81018713612ae057600080fd5b8035612af3612aee82612a53565b612a22565b818152886020838501011115612b0857600080fd5b8160208401602083013760006020838301015280935050505092959194509250565b600080600060408486031215612b3f57600080fd5b8335612b4a816128dc565b9250602084013567ffffffffffffffff80821115612b6757600080fd5b818601915086601f830112612b7b57600080fd5b813581811115612b8a57600080fd5b876020828501011115612b9c57600080fd5b6020830194508093505050509250925092565b600181811c90821680612bc357607f821691505b602082108103612be357634e487b7160e01b600052602260045260246000fd5b50919050565b60006001600160a01b03808816835263ffffffff8716602084015280861660408401525083606083015260a06080830152612c2760a0830184612884565b979650505050505050565b6001600160a01b0384168152606060208201526000612c546060830185612884565b8281036040840152612c668185612884565b9695505050505050565b600060208284031215612c8257600080fd5b815167ffffffffffffffff811115612c9957600080fd5b8201601f81018413612caa57600080fd5b8051612cb8612aee82612a53565b818152856020838501011115612ccd57600080fd5b612cde826020830160208601612858565b95945050505050565b60006001600160a01b038088168352808716602084015263ffffffff8616604084015280851660608401525060a06080830152612c2760a0830184612884565b600060208284031215612d3957600080fd5b8151611f6d816128dc565b6001600160a01b038416815263ffffffff83166020820152606060408201526000612cde6060830184612884565b600060208284031215612d8457600080fd5b5051919050565b60008351612d9d818460208801612858565b835190830190612db1818360208801612858565b01949350505050565b60008060408385031215612dcd57600080fd5b8251915060208301516fffffffffffffffffffffffffffffffff8116811461298357600080fd5b6001600160a01b038516815263ffffffff84166020820152826040820152608060608201526000612c666080830184612884565b634e487b7160e01b600052601160045260246000fd5b600082821015612e5057612e50612e28565b500390565b60008219821115612e6857612e68612e28565b500190565b7f416363657373436f6e74726f6c3a206163636f756e7420000000000000000000815260008351612ea5816017850160208801612858565b7f206973206d697373696e6720726f6c65200000000000000000000000000000006017918401918201528351612ee2816028840160208801612858565b01602801949350505050565b60006001600160a01b03808716835280861660208401525083604083015260806060830152612c666080830184612884565b600060208284031215612f3257600080fd5b8151611f6d81612825565b600060018201612f4f57612f4f612e28565b5060010190565b634e487b7160e01b600052601260045260246000fd5b600082612f7b57612f7b612f56565b500490565b600082612f8f57612f8f612f56565b500690565b634e487b7160e01b600052603260045260246000fd5b6000816000190483118215151615612fc457612fc4612e28565b500290565b600081612fd857612fd8612e28565b50600019019056fea2646970667358221220ceb96ee93e046806ebd6a6d2da83f7a6e10162b63a382ed581fb537c240fb8b964736f6c634300080e0033",
  "devdoc": {
    "kind": "dev",
    "methods": {
      "approve(address,uint256)": {
        "details": "See {IERC721-approve}."
      },
      "balanceOf(address)": {
        "details": "See {IERC721-balanceOf}."
      },
      "getApproved(uint256)": {
        "details": "See {IERC721-getApproved}."
      },
      "getRoleAdmin(bytes32)": {
        "details": "Returns the admin role that controls `role`. See {grantRole} and {revokeRole}. To change a role's admin, use {_setRoleAdmin}."
      },
      "grantRole(bytes32,address)": {
        "details": "Grants `role` to `account`. If `account` had not been already granted `role`, emits a {RoleGranted} event. Requirements: - the caller must have ``role``'s admin role. May emit a {RoleGranted} event."
      },
      "hasRole(bytes32,address)": {
        "details": "Returns `true` if `account` has been granted `role`."
      },
      "isApprovedForAll(address,address)": {
        "details": "See {IERC721-isApprovedForAll}."
      },
      "name()": {
        "details": "See {IERC721Metadata-name}."
      },
      "ownerOf(uint256)": {
        "details": "See {IERC721-ownerOf}."
      },
      "renounceRole(bytes32,address)": {
        "details": "Revokes `role` from the calling account. Roles are often managed via {grantRole} and {revokeRole}: this function's purpose is to provide a mechanism for accounts to lose their privileges if they are compromised (such as when a trusted device is misplaced). If the calling account had been revoked `role`, emits a {RoleRevoked} event. Requirements: - the caller must be `account`. May emit a {RoleRevoked} event."
      },
      "revokeRole(bytes32,address)": {
        "details": "Revokes `role` from `account`. If `account` had been granted `role`, emits a {RoleRevoked} event. Requirements: - the caller must have ``role``'s admin role. May emit a {RoleRevoked} event."
      },
      "safeTransferFrom(address,address,uint256)": {
        "details": "See {IERC721-safeTransferFrom}."
      },
      "safeTransferFrom(address,address,uint256,bytes)": {
        "details": "See {IERC721-safeTransferFrom}."
      },
      "setApprovalForAll(address,bool)": {
        "details": "See {IERC721-setApprovalForAll}."
      },
      "symbol()": {
        "details": "See {IERC721Metadata-symbol}."
      },
      "tokenURI(uint256)": {
        "details": "See {IERC721Metadata-tokenURI}."
      },
      "transferFrom(address,address,uint256)": {
        "details": "See {IERC721-transferFrom}."
      }
    },
    "version": 1
  },
  "userdoc": {
    "kind": "user",
    "methods": {
      "distribute()": {
        "notice": "Takes the entire balance of the designated spreaderToken in the contract and distributes it out to unit holders w/ IDA"
      }
    },
    "version": 1
  },
  "storageLayout": {
    "storage": [
      {
        "astId": 419,
        "contract": "contracts/AnyaVerse.sol:AnyaVerse",
        "label": "_initialized",
        "offset": 0,
        "slot": "0",
        "type": "t_uint8"
      },
      {
        "astId": 422,
        "contract": "contracts/AnyaVerse.sol:AnyaVerse",
        "label": "_initializing",
        "offset": 1,
        "slot": "0",
        "type": "t_bool"
      },
      {
        "astId": 2045,
        "contract": "contracts/AnyaVerse.sol:AnyaVerse",
        "label": "__gap",
        "offset": 0,
        "slot": "1",
        "type": "t_array(t_uint256)50_storage"
      },
      {
        "astId": 2315,
        "contract": "contracts/AnyaVerse.sol:AnyaVerse",
        "label": "__gap",
        "offset": 0,
        "slot": "51",
        "type": "t_array(t_uint256)50_storage"
      },
      {
        "astId": 592,
        "contract": "contracts/AnyaVerse.sol:AnyaVerse",
        "label": "_name",
        "offset": 0,
        "slot": "101",
        "type": "t_string_storage"
      },
      {
        "astId": 594,
        "contract": "contracts/AnyaVerse.sol:AnyaVerse",
        "label": "_symbol",
        "offset": 0,
        "slot": "102",
        "type": "t_string_storage"
      },
      {
        "astId": 598,
        "contract": "contracts/AnyaVerse.sol:AnyaVerse",
        "label": "_owners",
        "offset": 0,
        "slot": "103",
        "type": "t_mapping(t_uint256,t_address)"
      },
      {
        "astId": 602,
        "contract": "contracts/AnyaVerse.sol:AnyaVerse",
        "label": "_balances",
        "offset": 0,
        "slot": "104",
        "type": "t_mapping(t_address,t_uint256)"
      },
      {
        "astId": 606,
        "contract": "contracts/AnyaVerse.sol:AnyaVerse",
        "label": "_tokenApprovals",
        "offset": 0,
        "slot": "105",
        "type": "t_mapping(t_uint256,t_address)"
      },
      {
        "astId": 612,
        "contract": "contracts/AnyaVerse.sol:AnyaVerse",
        "label": "_operatorApprovals",
        "offset": 0,
        "slot": "106",
        "type": "t_mapping(t_address,t_mapping(t_address,t_bool))"
      },
      {
        "astId": 1454,
        "contract": "contracts/AnyaVerse.sol:AnyaVerse",
        "label": "__gap",
        "offset": 0,
        "slot": "107",
        "type": "t_array(t_uint256)44_storage"
      },
      {
        "astId": 1617,
        "contract": "contracts/AnyaVerse.sol:AnyaVerse",
        "label": "_tokenURIs",
        "offset": 0,
        "slot": "151",
        "type": "t_mapping(t_uint256,t_string_storage)"
      },
      {
        "astId": 1733,
        "contract": "contracts/AnyaVerse.sol:AnyaVerse",
        "label": "__gap",
        "offset": 0,
        "slot": "152",
        "type": "t_array(t_uint256)49_storage"
      },
      {
        "astId": 39,
        "contract": "contracts/AnyaVerse.sol:AnyaVerse",
        "label": "_roles",
        "offset": 0,
        "slot": "201",
        "type": "t_mapping(t_bytes32,t_struct(RoleData)34_storage)"
      },
      {
        "astId": 338,
        "contract": "contracts/AnyaVerse.sol:AnyaVerse",
        "label": "__gap",
        "offset": 0,
        "slot": "202",
        "type": "t_array(t_uint256)49_storage"
      },
      {
        "astId": 10153,
        "contract": "contracts/AnyaVerse.sol:AnyaVerse",
        "label": "_tokenIds",
        "offset": 0,
        "slot": "251",
        "type": "t_struct(Counter)3839_storage"
      },
      {
        "astId": 10163,
        "contract": "contracts/AnyaVerse.sol:AnyaVerse",
        "label": "idaV1",
        "offset": 0,
        "slot": "252",
        "type": "t_struct(InitData)10160_storage"
      },
      {
        "astId": 10166,
        "contract": "contracts/AnyaVerse.sol:AnyaVerse",
        "label": "anyaToken",
        "offset": 0,
        "slot": "254",
        "type": "t_contract(ISuperToken)6070"
      },
      {
        "astId": 10169,
        "contract": "contracts/AnyaVerse.sol:AnyaVerse",
        "label": "INDEX_ID",
        "offset": 20,
        "slot": "254",
        "type": "t_uint32"
      }
    ],
    "types": {
      "t_address": {
        "encoding": "inplace",
        "label": "address",
        "numberOfBytes": "20"
      },
      "t_array(t_uint256)44_storage": {
        "base": "t_uint256",
        "encoding": "inplace",
        "label": "uint256[44]",
        "numberOfBytes": "1408"
      },
      "t_array(t_uint256)49_storage": {
        "base": "t_uint256",
        "encoding": "inplace",
        "label": "uint256[49]",
        "numberOfBytes": "1568"
      },
      "t_array(t_uint256)50_storage": {
        "base": "t_uint256",
        "encoding": "inplace",
        "label": "uint256[50]",
        "numberOfBytes": "1600"
      },
      "t_bool": {
        "encoding": "inplace",
        "label": "bool",
        "numberOfBytes": "1"
      },
      "t_bytes32": {
        "encoding": "inplace",
        "label": "bytes32",
        "numberOfBytes": "32"
      },
      "t_contract(IInstantDistributionAgreementV1)5090": {
        "encoding": "inplace",
        "label": "contract IInstantDistributionAgreementV1",
        "numberOfBytes": "20"
      },
      "t_contract(ISuperToken)6070": {
        "encoding": "inplace",
        "label": "contract ISuperToken",
        "numberOfBytes": "20"
      },
      "t_contract(ISuperfluid)6633": {
        "encoding": "inplace",
        "label": "contract ISuperfluid",
        "numberOfBytes": "20"
      },
      "t_mapping(t_address,t_bool)": {
        "encoding": "mapping",
        "key": "t_address",
        "label": "mapping(address => bool)",
        "numberOfBytes": "32",
        "value": "t_bool"
      },
      "t_mapping(t_address,t_mapping(t_address,t_bool))": {
        "encoding": "mapping",
        "key": "t_address",
        "label": "mapping(address => mapping(address => bool))",
        "numberOfBytes": "32",
        "value": "t_mapping(t_address,t_bool)"
      },
      "t_mapping(t_address,t_uint256)": {
        "encoding": "mapping",
        "key": "t_address",
        "label": "mapping(address => uint256)",
        "numberOfBytes": "32",
        "value": "t_uint256"
      },
      "t_mapping(t_bytes32,t_struct(RoleData)34_storage)": {
        "encoding": "mapping",
        "key": "t_bytes32",
        "label": "mapping(bytes32 => struct AccessControlUpgradeable.RoleData)",
        "numberOfBytes": "32",
        "value": "t_struct(RoleData)34_storage"
      },
      "t_mapping(t_uint256,t_address)": {
        "encoding": "mapping",
        "key": "t_uint256",
        "label": "mapping(uint256 => address)",
        "numberOfBytes": "32",
        "value": "t_address"
      },
      "t_mapping(t_uint256,t_string_storage)": {
        "encoding": "mapping",
        "key": "t_uint256",
        "label": "mapping(uint256 => string)",
        "numberOfBytes": "32",
        "value": "t_string_storage"
      },
      "t_string_storage": {
        "encoding": "bytes",
        "label": "string",
        "numberOfBytes": "32"
      },
      "t_struct(Counter)3839_storage": {
        "encoding": "inplace",
        "label": "struct Counters.Counter",
        "members": [
          {
            "astId": 3838,
            "contract": "contracts/AnyaVerse.sol:AnyaVerse",
            "label": "_value",
            "offset": 0,
            "slot": "0",
            "type": "t_uint256"
          }
        ],
        "numberOfBytes": "32"
      },
      "t_struct(InitData)10160_storage": {
        "encoding": "inplace",
        "label": "struct AnyaVerse.InitData",
        "members": [
          {
            "astId": 10156,
            "contract": "contracts/AnyaVerse.sol:AnyaVerse",
            "label": "host",
            "offset": 0,
            "slot": "0",
            "type": "t_contract(ISuperfluid)6633"
          },
          {
            "astId": 10159,
            "contract": "contracts/AnyaVerse.sol:AnyaVerse",
            "label": "ida",
            "offset": 0,
            "slot": "1",
            "type": "t_contract(IInstantDistributionAgreementV1)5090"
          }
        ],
        "numberOfBytes": "64"
      },
      "t_struct(RoleData)34_storage": {
        "encoding": "inplace",
        "label": "struct AccessControlUpgradeable.RoleData",
        "members": [
          {
            "astId": 31,
            "contract": "contracts/AnyaVerse.sol:AnyaVerse",
            "label": "members",
            "offset": 0,
            "slot": "0",
            "type": "t_mapping(t_address,t_bool)"
          },
          {
            "astId": 33,
            "contract": "contracts/AnyaVerse.sol:AnyaVerse",
            "label": "adminRole",
            "offset": 0,
            "slot": "1",
            "type": "t_bytes32"
          }
        ],
        "numberOfBytes": "64"
      },
      "t_uint256": {
        "encoding": "inplace",
        "label": "uint256",
        "numberOfBytes": "32"
      },
      "t_uint32": {
        "encoding": "inplace",
        "label": "uint32",
        "numberOfBytes": "4"
      },
      "t_uint8": {
        "encoding": "inplace",
        "label": "uint8",
        "numberOfBytes": "1"
      }
    }
  }
}