{
  "address": "0x7cDF78107F6345901Ba7F3bF585648588cd88CCd",
  "abi": [
    {
      "inputs": [
        {
          "internalType": "contract ISuperfluid",
          "name": "_host",
          "type": "address"
        }
      ],
      "stateMutability": "nonpayable",
      "type": "constructor"
    },
    {
      "anonymous": false,
      "inputs": [
        {
          "indexed": true,
          "internalType": "address",
          "name": "agreementClass",
          "type": "address"
        },
        {
          "indexed": false,
          "internalType": "bytes32",
          "name": "id",
          "type": "bytes32"
        },
        {
          "indexed": false,
          "internalType": "bytes32[]",
          "name": "data",
          "type": "bytes32[]"
        }
      ],
      "name": "AgreementCreated",
      "type": "event"
    },
    {
      "anonymous": false,
      "inputs": [
        {
          "indexed": true,
          "internalType": "address",
          "name": "agreementClass",
          "type": "address"
        },
        {
          "indexed": false,
          "internalType": "bytes32",
          "name": "id",
          "type": "bytes32"
        },
        {
          "indexed": true,
          "internalType": "address",
          "name": "penaltyAccount",
          "type": "address"
        },
        {
          "indexed": true,
          "internalType": "address",
          "name": "rewardAccount",
          "type": "address"
        },
        {
          "indexed": false,
          "internalType": "uint256",
          "name": "rewardAmount",
          "type": "uint256"
        }
      ],
      "name": "AgreementLiquidated",
      "type": "event"
    },
    {
      "anonymous": false,
      "inputs": [
        {
          "indexed": false,
          "internalType": "address",
          "name": "liquidatorAccount",
          "type": "address"
        },
        {
          "indexed": true,
          "internalType": "address",
          "name": "agreementClass",
          "type": "address"
        },
        {
          "indexed": false,
          "internalType": "bytes32",
          "name": "id",
          "type": "bytes32"
        },
        {
          "indexed": true,
          "internalType": "address",
          "name": "penaltyAccount",
          "type": "address"
        },
        {
          "indexed": true,
          "internalType": "address",
          "name": "bondAccount",
          "type": "address"
        },
        {
          "indexed": false,
          "internalType": "uint256",
          "name": "rewardAmount",
          "type": "uint256"
        },
        {
          "indexed": false,
          "internalType": "uint256",
          "name": "bailoutAmount",
          "type": "uint256"
        }
      ],
      "name": "AgreementLiquidatedBy",
      "type": "event"
    },
    {
      "anonymous": false,
      "inputs": [
        {
          "indexed": true,
          "internalType": "address",
          "name": "agreementClass",
          "type": "address"
        },
        {
          "indexed": false,
          "internalType": "bytes32",
          "name": "id",
          "type": "bytes32"
        },
        {
          "indexed": true,
          "internalType": "address",
          "name": "liquidatorAccount",
          "type": "address"
        },
        {
          "indexed": true,
          "internalType": "address",
          "name": "targetAccount",
          "type": "address"
        },
        {
          "indexed": false,
          "internalType": "address",
          "name": "rewardAmountReceiver",
          "type": "address"
        },
        {
          "indexed": false,
          "internalType": "uint256",
          "name": "rewardAmount",
          "type": "uint256"
        },
        {
          "indexed": false,
          "internalType": "int256",
          "name": "targetAccountBalanceDelta",
          "type": "int256"
        },
        {
          "indexed": false,
          "internalType": "bytes",
          "name": "liquidationTypeData",
          "type": "bytes"
        }
      ],
      "name": "AgreementLiquidatedV2",
      "type": "event"
    },
    {
      "anonymous": false,
      "inputs": [
        {
          "indexed": true,
          "internalType": "address",
          "name": "agreementClass",
          "type": "address"
        },
        {
          "indexed": true,
          "internalType": "address",
          "name": "account",
          "type": "address"
        },
        {
          "indexed": false,
          "internalType": "uint256",
          "name": "slotId",
          "type": "uint256"
        }
      ],
      "name": "AgreementStateUpdated",
      "type": "event"
    },
    {
      "anonymous": false,
      "inputs": [
        {
          "indexed": true,
          "internalType": "address",
          "name": "agreementClass",
          "type": "address"
        },
        {
          "indexed": false,
          "internalType": "bytes32",
          "name": "id",
          "type": "bytes32"
        }
      ],
      "name": "AgreementTerminated",
      "type": "event"
    },
    {
      "anonymous": false,
      "inputs": [
        {
          "indexed": true,
          "internalType": "address",
          "name": "agreementClass",
          "type": "address"
        },
        {
          "indexed": false,
          "internalType": "bytes32",
          "name": "id",
          "type": "bytes32"
        },
        {
          "indexed": false,
          "internalType": "bytes32[]",
          "name": "data",
          "type": "bytes32[]"
        }
      ],
      "name": "AgreementUpdated",
      "type": "event"
    },
    {
      "anonymous": false,
      "inputs": [
        {
          "indexed": true,
          "internalType": "address",
          "name": "owner",
          "type": "address"
        },
        {
          "indexed": true,
          "internalType": "address",
          "name": "spender",
          "type": "address"
        },
        {
          "indexed": false,
          "internalType": "uint256",
          "name": "value",
          "type": "uint256"
        }
      ],
      "name": "Approval",
      "type": "event"
    },
    {
      "anonymous": false,
      "inputs": [
        {
          "indexed": true,
          "internalType": "address",
          "name": "operator",
          "type": "address"
        },
        {
          "indexed": true,
          "internalType": "address",
          "name": "tokenHolder",
          "type": "address"
        }
      ],
      "name": "AuthorizedOperator",
      "type": "event"
    },
    {
      "anonymous": false,
      "inputs": [
        {
          "indexed": true,
          "internalType": "address",
          "name": "bailoutAccount",
          "type": "address"
        },
        {
          "indexed": false,
          "internalType": "uint256",
          "name": "bailoutAmount",
          "type": "uint256"
        }
      ],
      "name": "Bailout",
      "type": "event"
    },
    {
      "anonymous": false,
      "inputs": [
        {
          "indexed": true,
          "internalType": "address",
          "name": "operator",
          "type": "address"
        },
        {
          "indexed": true,
          "internalType": "address",
          "name": "from",
          "type": "address"
        },
        {
          "indexed": false,
          "internalType": "uint256",
          "name": "amount",
          "type": "uint256"
        },
        {
          "indexed": false,
          "internalType": "bytes",
          "name": "data",
          "type": "bytes"
        },
        {
          "indexed": false,
          "internalType": "bytes",
          "name": "operatorData",
          "type": "bytes"
        }
      ],
      "name": "Burned",
      "type": "event"
    },
    {
      "anonymous": false,
      "inputs": [
        {
          "indexed": false,
          "internalType": "bytes32",
          "name": "uuid",
          "type": "bytes32"
        },
        {
          "indexed": false,
          "internalType": "address",
          "name": "codeAddress",
          "type": "address"
        }
      ],
      "name": "CodeUpdated",
      "type": "event"
    },
    {
      "anonymous": false,
      "inputs": [
        {
          "indexed": true,
          "internalType": "address",
          "name": "operator",
          "type": "address"
        },
        {
          "indexed": true,
          "internalType": "address",
          "name": "to",
          "type": "address"
        },
        {
          "indexed": false,
          "internalType": "uint256",
          "name": "amount",
          "type": "uint256"
        },
        {
          "indexed": false,
          "internalType": "bytes",
          "name": "data",
          "type": "bytes"
        },
        {
          "indexed": false,
          "internalType": "bytes",
          "name": "operatorData",
          "type": "bytes"
        }
      ],
      "name": "Minted",
      "type": "event"
    },
    {
      "anonymous": false,
      "inputs": [
        {
          "indexed": true,
          "internalType": "address",
          "name": "operator",
          "type": "address"
        },
        {
          "indexed": true,
          "internalType": "address",
          "name": "tokenHolder",
          "type": "address"
        }
      ],
      "name": "RevokedOperator",
      "type": "event"
    },
    {
      "anonymous": false,
      "inputs": [
        {
          "indexed": true,
          "internalType": "address",
          "name": "operator",
          "type": "address"
        },
        {
          "indexed": true,
          "internalType": "address",
          "name": "from",
          "type": "address"
        },
        {
          "indexed": true,
          "internalType": "address",
          "name": "to",
          "type": "address"
        },
        {
          "indexed": false,
          "internalType": "uint256",
          "name": "amount",
          "type": "uint256"
        },
        {
          "indexed": false,
          "internalType": "bytes",
          "name": "data",
          "type": "bytes"
        },
        {
          "indexed": false,
          "internalType": "bytes",
          "name": "operatorData",
          "type": "bytes"
        }
      ],
      "name": "Sent",
      "type": "event"
    },
    {
      "anonymous": false,
      "inputs": [
        {
          "indexed": true,
          "internalType": "address",
          "name": "account",
          "type": "address"
        },
        {
          "indexed": false,
          "internalType": "uint256",
          "name": "amount",
          "type": "uint256"
        }
      ],
      "name": "TokenDowngraded",
      "type": "event"
    },
    {
      "anonymous": false,
      "inputs": [
        {
          "indexed": true,
          "internalType": "address",
          "name": "account",
          "type": "address"
        },
        {
          "indexed": false,
          "internalType": "uint256",
          "name": "amount",
          "type": "uint256"
        }
      ],
      "name": "TokenUpgraded",
      "type": "event"
    },
    {
      "anonymous": false,
      "inputs": [
        {
          "indexed": true,
          "internalType": "address",
          "name": "from",
          "type": "address"
        },
        {
          "indexed": true,
          "internalType": "address",
          "name": "to",
          "type": "address"
        },
        {
          "indexed": false,
          "internalType": "uint256",
          "name": "value",
          "type": "uint256"
        }
      ],
      "name": "Transfer",
      "type": "event"
    },
    {
      "inputs": [
        {
          "internalType": "address",
          "name": "account",
          "type": "address"
        },
        {
          "internalType": "address",
          "name": "spender",
          "type": "address"
        }
      ],
      "name": "allowance",
      "outputs": [
        {
          "internalType": "uint256",
          "name": "",
          "type": "uint256"
        }
      ],
      "stateMutability": "view",
      "type": "function"
    },
    {
      "inputs": [
        {
          "internalType": "address",
          "name": "spender",
          "type": "address"
        },
        {
          "internalType": "uint256",
          "name": "amount",
          "type": "uint256"
        }
      ],
      "name": "approve",
      "outputs": [
        {
          "internalType": "bool",
          "name": "",
          "type": "bool"
        }
      ],
      "stateMutability": "nonpayable",
      "type": "function"
    },
    {
      "inputs": [
        {
          "internalType": "address",
          "name": "operator",
          "type": "address"
        }
      ],
      "name": "authorizeOperator",
      "outputs": [],
      "stateMutability": "nonpayable",
      "type": "function"
    },
    {
      "inputs": [
        {
          "internalType": "address",
          "name": "account",
          "type": "address"
        }
      ],
      "name": "balanceOf",
      "outputs": [
        {
          "internalType": "uint256",
          "name": "balance",
          "type": "uint256"
        }
      ],
      "stateMutability": "view",
      "type": "function"
    },
    {
      "inputs": [
        {
          "internalType": "uint256",
          "name": "amount",
          "type": "uint256"
        },
        {
          "internalType": "bytes",
          "name": "data",
          "type": "bytes"
        }
      ],
      "name": "burn",
      "outputs": [],
      "stateMutability": "nonpayable",
      "type": "function"
    },
    {
      "inputs": [
        {
          "internalType": "bytes32",
          "name": "id",
          "type": "bytes32"
        },
        {
          "internalType": "bytes32[]",
          "name": "data",
          "type": "bytes32[]"
        }
      ],
      "name": "createAgreement",
      "outputs": [],
      "stateMutability": "nonpayable",
      "type": "function"
    },
    {
      "inputs": [],
      "name": "decimals",
      "outputs": [
        {
          "internalType": "uint8",
          "name": "",
          "type": "uint8"
        }
      ],
      "stateMutability": "pure",
      "type": "function"
    },
    {
      "inputs": [
        {
          "internalType": "address",
          "name": "spender",
          "type": "address"
        },
        {
          "internalType": "uint256",
          "name": "subtractedValue",
          "type": "uint256"
        }
      ],
      "name": "decreaseAllowance",
      "outputs": [
        {
          "internalType": "bool",
          "name": "",
          "type": "bool"
        }
      ],
      "stateMutability": "nonpayable",
      "type": "function"
    },
    {
      "inputs": [],
      "name": "defaultOperators",
      "outputs": [
        {
          "internalType": "address[]",
          "name": "",
          "type": "address[]"
        }
      ],
      "stateMutability": "view",
      "type": "function"
    },
    {
      "inputs": [
        {
          "internalType": "uint256",
          "name": "amount",
          "type": "uint256"
        }
      ],
      "name": "downgrade",
      "outputs": [],
      "stateMutability": "nonpayable",
      "type": "function"
    },
    {
      "inputs": [
        {
          "internalType": "address",
          "name": "account",
          "type": "address"
        }
      ],
      "name": "getAccountActiveAgreements",
      "outputs": [
        {
          "internalType": "contract ISuperAgreement[]",
          "name": "",
          "type": "address[]"
        }
      ],
      "stateMutability": "view",
      "type": "function"
    },
    {
      "inputs": [
        {
          "internalType": "address",
          "name": "agreementClass",
          "type": "address"
        },
        {
          "internalType": "bytes32",
          "name": "id",
          "type": "bytes32"
        },
        {
          "internalType": "uint256",
          "name": "dataLength",
          "type": "uint256"
        }
      ],
      "name": "getAgreementData",
      "outputs": [
        {
          "internalType": "bytes32[]",
          "name": "data",
          "type": "bytes32[]"
        }
      ],
      "stateMutability": "view",
      "type": "function"
    },
    {
      "inputs": [
        {
          "internalType": "address",
          "name": "agreementClass",
          "type": "address"
        },
        {
          "internalType": "address",
          "name": "account",
          "type": "address"
        },
        {
          "internalType": "uint256",
          "name": "slotId",
          "type": "uint256"
        },
        {
          "internalType": "uint256",
          "name": "dataLength",
          "type": "uint256"
        }
      ],
      "name": "getAgreementStateSlot",
      "outputs": [
        {
          "internalType": "bytes32[]",
          "name": "slotData",
          "type": "bytes32[]"
        }
      ],
      "stateMutability": "view",
      "type": "function"
    },
    {
      "inputs": [],
      "name": "getCodeAddress",
      "outputs": [
        {
          "internalType": "address",
          "name": "codeAddress",
          "type": "address"
        }
      ],
      "stateMutability": "view",
      "type": "function"
    },
    {
      "inputs": [],
      "name": "getHost",
      "outputs": [
        {
          "internalType": "address",
          "name": "host",
          "type": "address"
        }
      ],
      "stateMutability": "view",
      "type": "function"
    },
    {
      "inputs": [],
      "name": "getUnderlyingToken",
      "outputs": [
        {
          "internalType": "address",
          "name": "",
          "type": "address"
        }
      ],
      "stateMutability": "view",
      "type": "function"
    },
    {
      "inputs": [],
      "name": "granularity",
      "outputs": [
        {
          "internalType": "uint256",
          "name": "",
          "type": "uint256"
        }
      ],
      "stateMutability": "pure",
      "type": "function"
    },
    {
      "inputs": [
        {
          "internalType": "address",
          "name": "spender",
          "type": "address"
        },
        {
          "internalType": "uint256",
          "name": "addedValue",
          "type": "uint256"
        }
      ],
      "name": "increaseAllowance",
      "outputs": [
        {
          "internalType": "bool",
          "name": "",
          "type": "bool"
        }
      ],
      "stateMutability": "nonpayable",
      "type": "function"
    },
    {
      "inputs": [
        {
          "internalType": "contract IERC20",
          "name": "underlyingToken",
          "type": "address"
        },
        {
          "internalType": "uint8",
          "name": "underlyingDecimals",
          "type": "uint8"
        },
        {
          "internalType": "string",
          "name": "n",
          "type": "string"
        },
        {
          "internalType": "string",
          "name": "s",
          "type": "string"
        }
      ],
      "name": "initialize",
      "outputs": [],
      "stateMutability": "nonpayable",
      "type": "function"
    },
    {
      "inputs": [
        {
          "internalType": "address",
          "name": "account",
          "type": "address"
        },
        {
          "internalType": "uint256",
          "name": "timestamp",
          "type": "uint256"
        }
      ],
      "name": "isAccountCritical",
      "outputs": [
        {
          "internalType": "bool",
          "name": "isCritical",
          "type": "bool"
        }
      ],
      "stateMutability": "view",
      "type": "function"
    },
    {
      "inputs": [
        {
          "internalType": "address",
          "name": "account",
          "type": "address"
        }
      ],
      "name": "isAccountCriticalNow",
      "outputs": [
        {
          "internalType": "bool",
          "name": "isCritical",
          "type": "bool"
        }
      ],
      "stateMutability": "view",
      "type": "function"
    },
    {
      "inputs": [
        {
          "internalType": "address",
          "name": "account",
          "type": "address"
        },
        {
          "internalType": "uint256",
          "name": "timestamp",
          "type": "uint256"
        }
      ],
      "name": "isAccountSolvent",
      "outputs": [
        {
          "internalType": "bool",
          "name": "isSolvent",
          "type": "bool"
        }
      ],
      "stateMutability": "view",
      "type": "function"
    },
    {
      "inputs": [
        {
          "internalType": "address",
          "name": "account",
          "type": "address"
        }
      ],
      "name": "isAccountSolventNow",
      "outputs": [
        {
          "internalType": "bool",
          "name": "isSolvent",
          "type": "bool"
        }
      ],
      "stateMutability": "view",
      "type": "function"
    },
    {
      "inputs": [
        {
          "internalType": "address",
          "name": "operator",
          "type": "address"
        },
        {
          "internalType": "address",
          "name": "tokenHolder",
          "type": "address"
        }
      ],
      "name": "isOperatorFor",
      "outputs": [
        {
          "internalType": "bool",
          "name": "",
          "type": "bool"
        }
      ],
      "stateMutability": "view",
      "type": "function"
    },
    {
      "inputs": [
        {
          "internalType": "bytes32",
          "name": "id",
          "type": "bytes32"
        },
        {
          "internalType": "bytes",
          "name": "liquidationTypeData",
          "type": "bytes"
        },
        {
          "internalType": "address",
          "name": "liquidatorAccount",
          "type": "address"
        },
        {
          "internalType": "bool",
          "name": "useDefaultRewardAccount",
          "type": "bool"
        },
        {
          "internalType": "address",
          "name": "targetAccount",
          "type": "address"
        },
        {
          "internalType": "uint256",
          "name": "rewardAmount",
          "type": "uint256"
        },
        {
          "internalType": "int256",
          "name": "targetAccountBalanceDelta",
          "type": "int256"
        }
      ],
      "name": "makeLiquidationPayoutsV2",
      "outputs": [],
      "stateMutability": "nonpayable",
      "type": "function"
    },
    {
      "inputs": [
        {
          "internalType": "uint256",
          "name": "amount",
          "type": "uint256"
        }
      ],
      "name": "mint",
      "outputs": [],
      "stateMutability": "nonpayable",
      "type": "function"
    },
    {
      "inputs": [],
      "name": "name",
      "outputs": [
        {
          "internalType": "string",
          "name": "",
          "type": "string"
        }
      ],
      "stateMutability": "view",
      "type": "function"
    },
    {
      "inputs": [
        {
          "internalType": "address",
          "name": "account",
          "type": "address"
        },
        {
          "internalType": "address",
          "name": "spender",
          "type": "address"
        },
        {
          "internalType": "uint256",
          "name": "amount",
          "type": "uint256"
        }
      ],
      "name": "operationApprove",
      "outputs": [],
      "stateMutability": "nonpayable",
      "type": "function"
    },
    {
      "inputs": [
        {
          "internalType": "address",
          "name": "account",
          "type": "address"
        },
        {
          "internalType": "uint256",
          "name": "amount",
          "type": "uint256"
        }
      ],
      "name": "operationDowngrade",
      "outputs": [],
      "stateMutability": "nonpayable",
      "type": "function"
    },
    {
      "inputs": [
        {
          "internalType": "address",
          "name": "account",
          "type": "address"
        },
        {
          "internalType": "address",
          "name": "spender",
          "type": "address"
        },
        {
          "internalType": "address",
          "name": "recipient",
          "type": "address"
        },
        {
          "internalType": "uint256",
          "name": "amount",
          "type": "uint256"
        }
      ],
      "name": "operationTransferFrom",
      "outputs": [],
      "stateMutability": "nonpayable",
      "type": "function"
    },
    {
      "inputs": [
        {
          "internalType": "address",
          "name": "account",
          "type": "address"
        },
        {
          "internalType": "uint256",
          "name": "amount",
          "type": "uint256"
        }
      ],
      "name": "operationUpgrade",
      "outputs": [],
      "stateMutability": "nonpayable",
      "type": "function"
    },
    {
      "inputs": [
        {
          "internalType": "address",
          "name": "account",
          "type": "address"
        },
        {
          "internalType": "uint256",
          "name": "amount",
          "type": "uint256"
        },
        {
          "internalType": "bytes",
          "name": "data",
          "type": "bytes"
        },
        {
          "internalType": "bytes",
          "name": "operatorData",
          "type": "bytes"
        }
      ],
      "name": "operatorBurn",
      "outputs": [],
      "stateMutability": "nonpayable",
      "type": "function"
    },
    {
      "inputs": [
        {
          "internalType": "address",
          "name": "sender",
          "type": "address"
        },
        {
          "internalType": "address",
          "name": "recipient",
          "type": "address"
        },
        {
          "internalType": "uint256",
          "name": "amount",
          "type": "uint256"
        },
        {
          "internalType": "bytes",
          "name": "data",
          "type": "bytes"
        },
        {
          "internalType": "bytes",
          "name": "operatorData",
          "type": "bytes"
        }
      ],
      "name": "operatorSend",
      "outputs": [],
      "stateMutability": "nonpayable",
      "type": "function"
    },
    {
      "inputs": [],
      "name": "proxiableUUID",
      "outputs": [
        {
          "internalType": "bytes32",
          "name": "",
          "type": "bytes32"
        }
      ],
      "stateMutability": "pure",
      "type": "function"
    },
    {
      "inputs": [
        {
          "internalType": "address",
          "name": "account",
          "type": "address"
        },
        {
          "internalType": "uint256",
          "name": "timestamp",
          "type": "uint256"
        }
      ],
      "name": "realtimeBalanceOf",
      "outputs": [
        {
          "internalType": "int256",
          "name": "availableBalance",
          "type": "int256"
        },
        {
          "internalType": "uint256",
          "name": "deposit",
          "type": "uint256"
        },
        {
          "internalType": "uint256",
          "name": "owedDeposit",
          "type": "uint256"
        }
      ],
      "stateMutability": "view",
      "type": "function"
    },
    {
      "inputs": [
        {
          "internalType": "address",
          "name": "account",
          "type": "address"
        }
      ],
      "name": "realtimeBalanceOfNow",
      "outputs": [
        {
          "internalType": "int256",
          "name": "availableBalance",
          "type": "int256"
        },
        {
          "internalType": "uint256",
          "name": "deposit",
          "type": "uint256"
        },
        {
          "internalType": "uint256",
          "name": "owedDeposit",
          "type": "uint256"
        },
        {
          "internalType": "uint256",
          "name": "timestamp",
          "type": "uint256"
        }
      ],
      "stateMutability": "view",
      "type": "function"
    },
    {
      "inputs": [
        {
          "internalType": "address",
          "name": "operator",
          "type": "address"
        }
      ],
      "name": "revokeOperator",
      "outputs": [],
      "stateMutability": "nonpayable",
      "type": "function"
    },
    {
      "inputs": [
        {
          "internalType": "address",
          "name": "account",
          "type": "address"
        },
        {
          "internalType": "address",
          "name": "spender",
          "type": "address"
        },
        {
          "internalType": "uint256",
          "name": "amount",
          "type": "uint256"
        }
      ],
      "name": "selfApproveFor",
      "outputs": [],
      "stateMutability": "nonpayable",
      "type": "function"
    },
    {
      "inputs": [
        {
          "internalType": "address",
          "name": "account",
          "type": "address"
        },
        {
          "internalType": "uint256",
          "name": "amount",
          "type": "uint256"
        },
        {
          "internalType": "bytes",
          "name": "userData",
          "type": "bytes"
        }
      ],
      "name": "selfBurn",
      "outputs": [],
      "stateMutability": "nonpayable",
      "type": "function"
    },
    {
      "inputs": [
        {
          "internalType": "address",
          "name": "account",
          "type": "address"
        },
        {
          "internalType": "uint256",
          "name": "amount",
          "type": "uint256"
        },
        {
          "internalType": "bytes",
          "name": "userData",
          "type": "bytes"
        }
      ],
      "name": "selfMint",
      "outputs": [],
      "stateMutability": "nonpayable",
      "type": "function"
    },
    {
      "inputs": [
        {
          "internalType": "address",
          "name": "holder",
          "type": "address"
        },
        {
          "internalType": "address",
          "name": "spender",
          "type": "address"
        },
        {
          "internalType": "address",
          "name": "recipient",
          "type": "address"
        },
        {
          "internalType": "uint256",
          "name": "amount",
          "type": "uint256"
        }
      ],
      "name": "selfTransferFrom",
      "outputs": [],
      "stateMutability": "nonpayable",
      "type": "function"
    },
    {
      "inputs": [
        {
          "internalType": "address",
          "name": "recipient",
          "type": "address"
        },
        {
          "internalType": "uint256",
          "name": "amount",
          "type": "uint256"
        },
        {
          "internalType": "bytes",
          "name": "data",
          "type": "bytes"
        }
      ],
      "name": "send",
      "outputs": [],
      "stateMutability": "nonpayable",
      "type": "function"
    },
    {
      "inputs": [
        {
          "internalType": "address",
          "name": "account",
          "type": "address"
        },
        {
          "internalType": "int256",
          "name": "delta",
          "type": "int256"
        }
      ],
      "name": "settleBalance",
      "outputs": [],
      "stateMutability": "nonpayable",
      "type": "function"
    },
    {
      "inputs": [],
      "name": "symbol",
      "outputs": [
        {
          "internalType": "string",
          "name": "",
          "type": "string"
        }
      ],
      "stateMutability": "view",
      "type": "function"
    },
    {
      "inputs": [
        {
          "internalType": "bytes32",
          "name": "id",
          "type": "bytes32"
        },
        {
          "internalType": "uint256",
          "name": "dataLength",
          "type": "uint256"
        }
      ],
      "name": "terminateAgreement",
      "outputs": [],
      "stateMutability": "nonpayable",
      "type": "function"
    },
    {
      "inputs": [],
      "name": "totalSupply",
      "outputs": [
        {
          "internalType": "uint256",
          "name": "",
          "type": "uint256"
        }
      ],
      "stateMutability": "view",
      "type": "function"
    },
    {
      "inputs": [
        {
          "internalType": "address",
          "name": "recipient",
          "type": "address"
        },
        {
          "internalType": "uint256",
          "name": "amount",
          "type": "uint256"
        }
      ],
      "name": "transfer",
      "outputs": [
        {
          "internalType": "bool",
          "name": "",
          "type": "bool"
        }
      ],
      "stateMutability": "nonpayable",
      "type": "function"
    },
    {
      "inputs": [
        {
          "internalType": "address",
          "name": "recipient",
          "type": "address"
        }
      ],
      "name": "transferAll",
      "outputs": [],
      "stateMutability": "nonpayable",
      "type": "function"
    },
    {
      "inputs": [
        {
          "internalType": "address",
          "name": "holder",
          "type": "address"
        },
        {
          "internalType": "address",
          "name": "recipient",
          "type": "address"
        },
        {
          "internalType": "uint256",
          "name": "amount",
          "type": "uint256"
        }
      ],
      "name": "transferFrom",
      "outputs": [
        {
          "internalType": "bool",
          "name": "",
          "type": "bool"
        }
      ],
      "stateMutability": "nonpayable",
      "type": "function"
    },
    {
      "inputs": [
        {
          "internalType": "bytes32",
          "name": "id",
          "type": "bytes32"
        },
        {
          "internalType": "bytes32[]",
          "name": "data",
          "type": "bytes32[]"
        }
      ],
      "name": "updateAgreementData",
      "outputs": [],
      "stateMutability": "nonpayable",
      "type": "function"
    },
    {
      "inputs": [
        {
          "internalType": "address",
          "name": "account",
          "type": "address"
        },
        {
          "internalType": "uint256",
          "name": "slotId",
          "type": "uint256"
        },
        {
          "internalType": "bytes32[]",
          "name": "slotData",
          "type": "bytes32[]"
        }
      ],
      "name": "updateAgreementStateSlot",
      "outputs": [],
      "stateMutability": "nonpayable",
      "type": "function"
    },
    {
      "inputs": [
        {
          "internalType": "address",
          "name": "newAddress",
          "type": "address"
        }
      ],
      "name": "updateCode",
      "outputs": [],
      "stateMutability": "nonpayable",
      "type": "function"
    },
    {
      "inputs": [
        {
          "internalType": "uint256",
          "name": "amount",
          "type": "uint256"
        }
      ],
      "name": "upgrade",
      "outputs": [],
      "stateMutability": "nonpayable",
      "type": "function"
    },
    {
      "inputs": [
        {
          "internalType": "address",
          "name": "to",
          "type": "address"
        },
        {
          "internalType": "uint256",
          "name": "amount",
          "type": "uint256"
        },
        {
          "internalType": "bytes",
          "name": "data",
          "type": "bytes"
        }
      ],
      "name": "upgradeTo",
      "outputs": [],
      "stateMutability": "nonpayable",
      "type": "function"
    }
  ],
  "transactionHash": "0x853f3eb7a9b7647ca5f167b8f83dec2e888991474132309dc33b6ffebfb8891e",
  "args": [
    "0x22ff293e14F1EC3A09B137e9e06084AFd63adDF9"
  ],
  "numDeployments": 1,
  "solcInputHash": "21e73793556317ae91ed28308b52733c",
  "bytecode": "0x60a06040523480156200001157600080fd5b5060405162004dd438038062004dd4833981016040819052620000349162000046565b6001600160a01b031660805262000078565b6000602082840312156200005957600080fd5b81516001600160a01b03811681146200007157600080fd5b9392505050565b608051614cd7620000fd6000396000818161043201528181610b2a01528181610bdc01528181610ec00152818161108201528181611151015281816113b50152818161153f015281816117c001528181611b4801528181611c2801528181611cf3015281816126d90152818161277001528181613a0b0152613c8b0152614cd76000f3fe608060405234801561001057600080fd5b50600436106103625760003560e01c806362ad1b83116101c8578063a9059cbb11610104578063d9d078d6116100a2578063ee719bc81161007c578063ee719bc8146107bd578063fad8b32a146107ce578063fc673c4f146107e1578063fe9d9303146107f457600080fd5b8063d9d078d614610743578063dd62ed3e14610756578063eb3537cc1461078f57600080fd5b8063c68d4283116100de578063c68d4283146106f7578063ca7894641461070a578063cf97256d1461071d578063d95b63711461073057600080fd5b8063a9059cbb146106be578063b84cdd4a146106d1578063bb0d196e146106e457600080fd5b806395d89b4111610171578063a0712d681161014b578063a0712d6814610672578063a1b2bf8b14610685578063a3a7e7f314610698578063a457c2d7146106ab57600080fd5b806395d89b41146106445780639bd9bbc61461064c5780639d8767411461065f57600080fd5b806370a08231116101a257806370a082311461060b57806379359f6f1461061e578063959b8c3f1461063157600080fd5b806362ad1b83146105d257806366a12fb6146105e55780636c2d9f2f146105f857600080fd5b80632ec8eec7116102a2578063469519541161024057806352d1902d1161021a57806352d1902d1461057f578063556f0dc7146105a55780635b9d09cc146105ac57806362aa5287146105bf57600080fd5b806346951954146105445780634b61cc331461055757806350d75d251461057757600080fd5b8063395093511161027c57806339509351146104f857806341b706be1461050b57806342fe09801461051e57806345977d031461053157600080fd5b80632ec8eec7146104a3578063313ce567146104d6578063386fa221146104e557600080fd5b806316d055d61161030f57806320bc4425116102e957806320bc44251461043057806323b872dd1461046a578063245887fc1461047d578063270483971461049057600080fd5b806316d055d6146103f857806318160ddd1461040b5780631863e8091461041d57600080fd5b8063095ea7b311610340578063095ea7b3146103af57806311bcc81e146103d257806312a6a3f8146103e557600080fd5b806306e485381461036757806306fdde0314610385578063090c415e1461039a575b600080fd5b61036f610807565b60405161037c9190613f6a565b60405180910390f35b61038d610818565b60405161037c919061400f565b6103ad6103a8366004614083565b6108aa565b005b6103c26103bd3660046140df565b610995565b604051901515815260200161037c565b6103ad6103e036600461410b565b6109ac565b6103ad6103f3366004614124565b6109da565b6103ad610406366004614170565b610b28565b6003545b60405190815260200161037c565b6103ad61042b366004614286565b610bc7565b7f00000000000000000000000000000000000000000000000000000000000000005b6040516001600160a01b03909116815260200161037c565b6103c2610478366004614319565b610ea6565b6103ad61048b3660046140df565b610ebe565b6103ad61049e36600461435a565b610f79565b6104b66104b136600461437c565b61107a565b60408051948552602085019390935291830152606082015260800161037c565b6040516012815260200161037c565b61036f6104f336600461437c565b61111d565b6103c26105063660046140df565b6111c0565b6103ad610519366004614170565b6111fc565b6103ad61052c3660046143db565b611257565b6103ad61053f36600461410b565b61137e565b6103ad61055236600461437c565b6113aa565b61056a610565366004614476565b611439565b60405161037c91906144bc565b6104526114ba565b7f6bfbb132610e56cb96575dba244667b9d6dbfeffe22b68a79fa16f2d18eb001961040f565b600161040f565b6103ad6105ba3660046144f4565b6114e4565b6103ad6105cd366004614319565b61153d565b6103ad6105e0366004614544565b6115d9565b6103ad6105f3366004614319565b6116cf565b61056a6106063660046145e3565b61171e565b61040f61061936600461437c565b611790565b6103c261062c36600461437c565b6117b8565b6103ad61063f36600461437c565b611840565b61038d611891565b6103ad61065a3660046144f4565b6118a0565b6103ad61066d366004614618565b6118f4565b6103ad61068036600461410b565b611963565b6103ad610693366004614124565b6119b0565b6103ad6106a636600461437c565b611a7e565b6103c26106b93660046140df565b611a92565b6103c26106cc3660046140df565b611ae1565b6103c26106df3660046140df565b611aef565b6103c26106f236600461437c565b611b40565b6103ad610705366004614618565b611bc8565b6103ad6107183660046140df565b611c26565b6103ad61072b3660046140df565b611cde565b6103c261073e366004614671565b611e06565b6103c26107513660046140df565b611e14565b61040f610764366004614671565b6001600160a01b03918216600090815260116020908152604080832093909416825291909152205490565b6107a261079d3660046140df565b611e2e565b6040805193845260208401929092529082015260600161037c565b600e546001600160a01b0316610452565b6103ad6107dc36600461437c565b611f6a565b6103ad6107ef3660046146aa565b611fbb565b6103ad6108023660046146f2565b6120a3565b606061081360126120f3565b905090565b6060600f805461082790614731565b80601f016020809104026020016040519081016040528092919081815260200182805461085390614731565b80156108a05780601f10610875576101008083540402835291602001916108a0565b820191906000526020600020905b81548152906001019060200180831161088357829003601f168201915b5050505050905090565b60408051608060208201819052600e60a08301526d41677265656d656e74537461746560901b60c083015233928201929092526001600160a01b038616606082015290810184905260009060e00160405160208183030381529060405280519060200120905061094d8184848080602002602001604051908101604052809392919081815260200183836020028082843760009201919091525061215992505050565b6040518481526001600160a01b0386169033907f30f416fa68fca014a0f334464c64b000ba53e99b6d2afdea9d5ca756372d5985906020015b60405180910390a35050505050565b60006109a233848461219a565b5060015b92915050565b6109d733338360405180602001604052806000815250604051806020016040528060008152506122c2565b50565b60408051606060208201819052600d60808301526c41677265656d656e744461746160981b60a083015233928201839052810185905260009060c00160408051601f1981840301815291905280516020909101209050610a3a81846124ff565b15610a9f5760405162461bcd60e51b815260206004820152602a60248201527f5375706572666c756964546f6b656e3a2061677265656d656e7420616c726561604482015269191e4818dc99585d195960b21b60648201526084015b60405180910390fd5b610adc8185858080602002602001604051908101604052809392919081815260200183836020028082843760009201919091525061215992505050565b816001600160a01b03167f770ea40a13a4644573ed785e5c7116890709947918747febc5add46feb531e2d868686604051610b199392919061476b565b60405180910390a25050505050565b7f00000000000000000000000000000000000000000000000000000000000000006001600160a01b03163314610bb45760405162461bcd60e51b815260206004820152602b60248201527f5375706572666c756964546f6b656e3a204f6e6c7920686f737420636f6e747260448201526a1858dd08185b1b1bddd95960aa1b6064820152608401610a96565b610bc08484848461253b565b5050505050565b604051632329212160e21b81523360048201527f00000000000000000000000000000000000000000000000000000000000000006001600160a01b031690638ca4848490602401602060405180830381865afa158015610c2b573d6000803e3d6000fd5b505050506040513d601f19601f82011682018060405250810190610c4f91906147c7565b610cab5760405162461bcd60e51b815260206004820152602760248201527f5375706572666c756964546f6b656e3a206f6e6c79206c6973746564206167726044820152661959595b595b9d60ca1b6064820152608401610a96565b6000610cb56126d4565b90506001600160a01b038116610cc85750845b600085610cd55786610cd7565b815b905060008313610d7457610cea836147fa565b610cf385612819565b14610d0057610d00614816565b610d0984612819565b6001600160a01b03821660009081526002602052604081208054909190610d3190849061482c565b90915550506001600160a01b03851660009081526002602052604081208054859290610d5e90849061482c565b90915550610d6f9050858286612887565b610e3e565b8515610d8257610d82614816565b82610d8c85612819565b610d96919061482c565b6001600160a01b03831660009081526002602052604081208054909190610dbe90849061486c565b90915550610dcd905084612819565b6001600160a01b03881660009081526002602052604081208054909190610df590849061482c565b90915550506001600160a01b03851660009081526002602052604081208054859290610e2290849061482c565b90915550610e339050828886612887565b610e3e828685612887565b846001600160a01b0316876001600160a01b0316336001600160a01b03167fb8381a3ce157650e06186e3e8f4dd4dc29236f2688b6eed1893d0a60d7c6386f8c8589898f604051610e939594939291906148ab565b60405180910390a4505050505050505050565b6000610eb43385858561253b565b90505b9392505050565b7f00000000000000000000000000000000000000000000000000000000000000006001600160a01b03163314610f4a5760405162461bcd60e51b815260206004820152602b60248201527f5375706572666c756964546f6b656e3a204f6e6c7920686f737420636f6e747260448201526a1858dd08185b1b1bddd95960aa1b6064820152608401610a96565b610f7533838360405180602001604052806000815250604051806020016040528060008152506122c2565b5050565b60408051606060208201819052600d60808301526c41677265656d656e744461746160981b60a083015233928201839052810184905260009060c001604051602081830303815290604052805190602001209050610fd781846124ff565b6110355760405162461bcd60e51b815260206004820152602960248201527f5375706572666c756964546f6b656e3a2061677265656d656e7420646f6573206044820152681b9bdd08195e1a5cdd60ba1b6064820152608401610a96565b61103f81846128cc565b60405184815233907f71a63dc095de07aa5512ad57a7596a39516317e316981a1cd71000057be1537b9060200160405180910390a250505050565b6000806000807f00000000000000000000000000000000000000000000000000000000000000006001600160a01b031663bbe4fd506040518163ffffffff1660e01b8152600401602060405180830381865afa1580156110de573d6000803e3d6000fd5b505050506040513d601f19601f8201168201806040525081019061110291906148df565b905061110e8582611e2e565b91979096509094509092509050565b6001600160a01b038181166000908152600160205260409081902054905163c56a069d60e01b8152901960048201526060917f0000000000000000000000000000000000000000000000000000000000000000169063c56a069d90602401600060405180830381865afa158015611198573d6000803e3d6000fd5b505050506040513d6000823e601f3d908101601f191682016040526109a691908101906148f8565b3360008181526011602090815260408083206001600160a01b038716845290915281205490916109a29185906111f79086906149aa565b61219a565b33301461124b5760405162461bcd60e51b815260206004820152601d60248201527f5375706572546f6b656e3a206f6e6c792073656c6620616c6c6f7765640000006044820152606401610a96565b610bc08385848461253b565b600054610100900460ff166112725760005460ff1615611276565b303b155b6112e85760405162461bcd60e51b815260206004820152602e60248201527f496e697469616c697a61626c653a20636f6e747261637420697320616c72656160448201527f647920696e697469616c697a65640000000000000000000000000000000000006064820152608401610a96565b600054610100900460ff1615801561130a576000805461ffff19166101011790555b600e805460ff8816600160a01b0274ffffffffffffffffffffffffffffffffffffffffff199091166001600160a01b038a161717905561134c600f8686613eda565b5061135960108484613eda565b50611363306128ed565b8015611375576000805461ff00191690555b50505050505050565b6109d7333333846040518060200160405280600081525060405180602001604052806000815250612a1b565b336001600160a01b037f000000000000000000000000000000000000000000000000000000000000000016146114305760405162461bcd60e51b815260206004820152602560248201527f5375706572546f6b656e3a206f6e6c7920686f73742063616e2075706461746560448201526420636f646560d81b6064820152608401610a96565b6109d781612c74565b60408051608060208201819052600e60a08301526d41677265656d656e74537461746560901b60c08301526001600160a01b038088169383019390935291851660608281019190915291810184905260009060e0016040516020818303038152906040528051906020012090506114b08184612eb4565b9695505050505050565b60006108137f360894a13ba1a3210667c828492db98dca3e2076cc3735a920a3ca505d382bbc5490565b611537333386866040518060200160405280600081525087878080601f016020809104026020016040519081016040528093929190818152602001838380828437600092019190915250612a1b92505050565b50505050565b7f00000000000000000000000000000000000000000000000000000000000000006001600160a01b031633146115c95760405162461bcd60e51b815260206004820152602b60248201527f5375706572666c756964546f6b656e3a204f6e6c7920686f737420636f6e747260448201526a1858dd08185b1b1bddd95960aa1b6064820152608401610a96565b6115d483838361219a565b505050565b336115e66012828a612f44565b61164b5760405162461bcd60e51b815260206004820152603060248201527f5375706572546f6b656e3a2063616c6c6572206973206e6f7420616e206f706560448201526f3930ba37b9103337b9103437b63232b960811b6064820152608401610a96565b6116c58189898989898080601f01602080910402602001604051908101604052809392919081815260200183838082843760009201919091525050604080516020601f8d018190048102820181019092528b815292508b91508a908190840183828082843760009201919091525060019250612fed915050565b5050505050505050565b3330146115c95760405162461bcd60e51b815260206004820152601d60248201527f5375706572546f6b656e3a206f6e6c792073656c6620616c6c6f7765640000006044820152606401610a96565b60408051606060208201819052600d60808301526c41677265656d656e744461746160981b60a08301526001600160a01b0386169282019290925280820184905260009060c0016040516020818303038152906040528051906020012090506117878184612eb4565b95945050505050565b60008061179c8361107a565b5050509050600081126117af5780610eb7565b60009392505050565b60006109a6827f00000000000000000000000000000000000000000000000000000000000000006001600160a01b031663bbe4fd506040518163ffffffff1660e01b8152600401602060405180830381865afa15801561181c573d6000803e3d6000fd5b505050506040513d601f19601f8201168201806040525081019061075191906148df565b3361184d601282846130df565b806001600160a01b0316826001600160a01b03167ff4caeb2d6ca8932a215a353d0703c326ec2d81fc68170f320eb2ab49e9df61f960405160405180910390a35050565b60606010805461082790614731565b6115373333868686868080601f01602080910402602001604051908101604052809392919081815260200183838082843760009201829052506040805160208101909152908152925060019150612fed9050565b3330146119435760405162461bcd60e51b815260206004820152601d60248201527f5375706572546f6b656e3a206f6e6c792073656c6620616c6c6f7765640000006044820152606401610a96565b6040805160008152602081019091526115d49033908590859085906131e3565b604080516000808252602082019092526109d79133918291859160005b6040519080825280601f01601f1916602001820160405280156119aa576020820181803683370190505b506132ea565b60408051606060208201819052600d60808301526c41677265656d656e744461746160981b60a083015233928201839052810185905260009060c001604051602081830303815290604052805190602001209050611a418185858080602002602001604051908101604052809392919081815260200183836020028082843760009201919091525061215992505050565b336001600160a01b03167f0c4c547b3a4fcaa5be8353b3111472b124155bccc86de811d4a481c9e6e9faca868686604051610b199392919061476b565b610f75333383611a8d33611790565b61253b565b60006109a233846111f7856040518060600160405280602a8152602001614c4b602a91393360009081526011602090815260408083206001600160a01b038d16845290915290205491906133f3565b6000610eb73333858561253b565b600080600080611aff8686611e2e565b9250925092506000611b27828411611b18576000612819565b611b2283856149c2565b612819565b611b31908561482c565b60001315979650505050505050565b60006109a6827f00000000000000000000000000000000000000000000000000000000000000006001600160a01b031663bbe4fd506040518163ffffffff1660e01b8152600401602060405180830381865afa158015611ba4573d6000803e3d6000fd5b505050506040513d601f19601f820116820180604052508101906106df91906148df565b333014611c175760405162461bcd60e51b815260206004820152601d60248201527f5375706572546f6b656e3a206f6e6c792073656c6620616c6c6f7765640000006044820152606401610a96565b6115d433848460008581611980565b7f00000000000000000000000000000000000000000000000000000000000000006001600160a01b03163314611cb25760405162461bcd60e51b815260206004820152602b60248201527f5375706572666c756964546f6b656e3a204f6e6c7920686f737420636f6e747260448201526a1858dd08185b1b1bddd95960aa1b6064820152608401610a96565b610f75338384846040518060200160405280600081525060405180602001604052806000815250612a1b565b604051632329212160e21b81523360048201527f00000000000000000000000000000000000000000000000000000000000000006001600160a01b031690638ca4848490602401602060405180830381865afa158015611d42573d6000803e3d6000fd5b505050506040513d601f19601f82011682018060405250810190611d6691906147c7565b611dc25760405162461bcd60e51b815260206004820152602760248201527f5375706572666c756964546f6b656e3a206f6e6c79206c6973746564206167726044820152661959595b595b9d60ca1b6064820152608401610a96565b6001600160a01b038216600090815260026020526040902054611de690829061482c565b6001600160a01b0390921660009081526002602052604090209190915550565b6000610eb760128484612f44565b600080611e218484611e2e565b5050600013949350505050565b6001600160a01b038216600090815260026020526040812054908080611e538661111d565b905060005b8151811015611f61576000806000848481518110611e7857611e786149d9565b60209081029190910101516040516326cb922f60e21b81523060048201526001600160a01b038c81166024830152604482018c905290911690639b2e48bc90606401606060405180830381865afa158015611ed7573d6000803e3d6000fd5b505050506040513d601f19601f82011682018060405250810190611efb91906149ef565b91945092509050611f0c82886149aa565b9650611f1881876149aa565b9550611f35818311611f2b576000612819565b611b2282846149c2565b611f3f848a61482c565b611f49919061486c565b97505050508080611f5990614a1d565b915050611e58565b50509250925092565b33611f776012828461341f565b806001600160a01b0316826001600160a01b03167f50546e66e5f44d728365dc3908c63bc5cfeeab470722c1677e3073a6ac294aa160405160405180910390a35050565b33611fc860128289612f44565b61202d5760405162461bcd60e51b815260206004820152603060248201527f5375706572546f6b656e3a2063616c6c6572206973206e6f7420616e206f706560448201526f3930ba37b9103337b9103437b63232b960811b6064820152608401610a96565b61137581888888888080601f01602080910402602001604051908101604052809392919081815260200183838082843760009201919091525050604080516020601f8c018190048102820181019092528a815292508a91508990819084018382808284376000920191909152506122c292505050565b6115d433338585858080601f0160208091040260200160405190810160405280939291908181526020018383808284376000920182905250604080516020810190915290815292506122c2915050565b60608160000180548060200260200160405190810160405280929190818152602001828054801561214d57602002820191906000526020600020905b81546001600160a01b0316815260019091019060200180831161212f575b50505050509050919050565b60005b81518110156115d4576000828281518110612179576121796149d9565b602002602001015190508082850155508061219390614a1d565b905061215c565b6001600160a01b0383166121fe5760405162461bcd60e51b815260206004820152602560248201527f5375706572546f6b656e3a20617070726f76652066726f6d207a65726f206164604482015264647265737360d81b6064820152608401610a96565b6001600160a01b0382166122605760405162461bcd60e51b815260206004820152602360248201527f5375706572546f6b656e3a20617070726f766520746f207a65726f206164647260448201526265737360e81b6064820152608401610a96565b6001600160a01b0383811660008181526011602090815260408083209487168084529482529182902085905590518481527f8c5be1e5ebec7d5bd14f71427d1e84f3dd0314c0f7b2291e5b200ac8c7c3b92591015b60405180910390a3505050565b600e546001600160a01b031661231a5760405162461bcd60e51b815260206004820152601f60248201527f5375706572546f6b656e3a206e6f20756e6465726c79696e6720746f6b656e006044820152606401610a96565b60008061232685613517565b9150915061233787878387876131e3565b600e546040516370a0823160e01b81523060048201526000916001600160a01b0316906370a0823190602401602060405180830381865afa158015612380573d6000803e3d6000fd5b505050506040513d601f19601f820116820180604052508101906123a491906148df565b600e549091506123be906001600160a01b031688856135d3565b600e546040516370a0823160e01b81523060048201526000916001600160a01b0316906370a0823190602401602060405180830381865afa158015612407573d6000803e3d6000fd5b505050506040513d601f19601f8201168201806040525081019061242b91906148df565b9050600061243982846149c2565b90508085146124b05760405162461bcd60e51b815260206004820152603a60248201527f5375706572546f6b656e3a20696e666c6174696f6e6172792f6465666c61746960448201527f6f6e61727920746f6b656e73206e6f7420737570706f727465640000000000006064820152608401610a96565b886001600160a01b03167f3bc27981aebbb57f9247dc00fde9d6cd91e4b230083fec3238fedbcba1f9ab3d856040516124eb91815260200190565b60405180910390a250505050505050505050565b6000805b8281101561253157838101548015612520576001925050506109a6565b5061252a81614a1d565b9050612503565b5060009392505050565b60006001600160a01b0384166125a25760405162461bcd60e51b815260206004820152602660248201527f5375706572546f6b656e3a207472616e736665722066726f6d207a65726f206160448201526564647265737360d01b6064820152608401610a96565b6001600160a01b0383166126045760405162461bcd60e51b8152602060048201526024808201527f5375706572546f6b656e3a207472616e7366657220746f207a65726f206164646044820152637265737360e01b6064820152608401610a96565b6000339050612635818686866040518060200160405280600081525060405180602001604052806000815250613663565b846001600160a01b0316866001600160a01b0316146126c8576126c885876111f7866040518060600160405280602d8152602001614c75602d9139601160008c6001600160a01b03166001600160a01b0316815260200190815260200160002060008d6001600160a01b03166001600160a01b03168152602001908152602001600020546133f39092919063ffffffff16565b50600195945050505050565b6000807f00000000000000000000000000000000000000000000000000000000000000006001600160a01b031663289b3c0d6040518163ffffffff1660e01b8152600401602060405180830381865afa158015612735573d6000803e3d6000fd5b505050506040513d601f19601f820116820180604052508101906127599190614a36565b604051638369a0f160e01b81526001600160a01b037f0000000000000000000000000000000000000000000000000000000000000000811660048301523060248301527f9f60ae461adf056670e03ae602566409933242392cb06744f5747c9f38b05d09604483015291925090821690638369a0f190606401602060405180830381865afa1580156127ef573d6000803e3d6000fd5b505050506040513d601f19601f820116820180604052508101906128139190614a36565b91505090565b60006001600160ff1b038211156128835760405162461bcd60e51b815260206004820152602860248201527f53616665436173743a2076616c756520646f65736e27742066697420696e2061604482015267371034b73a191a9b60c11b6064820152608401610a96565b5090565b816001600160a01b0316836001600160a01b03167fddf252ad1be2c89b69c2b068fc378daa952ba7f163c4a11628f55a4df523b3ef836040516122b591815260200190565b60005b818110156115d4576000838201556128e681614a1d565b90506128cf565b6040516329965a1d60e01b81526001600160a01b03821660048201527fac7fbab5f54a3ca8194167523c6753bfeb96a445279294b6125b68cce21770546024820152306044820152731820a4b7618bde71dce8cdc73aab6c95905fad24906329965a1d90606401600060405180830381600087803b15801561296e57600080fd5b505af1158015612982573d6000803e3d6000fd5b50506040516329965a1d60e01b81526001600160a01b03841660048201527faea199e31a596269b42cdafd93407f14436db6e4cad65417994c2eb37381e05a6024820152306044820152731820a4b7618bde71dce8cdc73aab6c95905fad2492506329965a1d9150606401600060405180830381600087803b158015612a0757600080fd5b505af1158015610bc0573d6000803e3d6000fd5b600e546001600160a01b0316612a735760405162461bcd60e51b815260206004820152601f60248201527f5375706572546f6b656e3a206e6f20756e6465726c79696e6720746f6b656e006044820152606401610a96565b600080612a7f85613517565b600e546040516370a0823160e01b81523060048201529294509092506000916001600160a01b03909116906370a0823190602401602060405180830381865afa158015612ad0573d6000803e3d6000fd5b505050506040513d601f19601f82011682018060405250810190612af491906148df565b600e54909150612b0f906001600160a01b0316893086613714565b600e546040516370a0823160e01b81523060048201526000916001600160a01b0316906370a0823190602401602060405180830381865afa158015612b58573d6000803e3d6000fd5b505050506040513d601f19601f82011682018060405250810190612b7c91906148df565b90506000612b8a83836149c2565b9050808514612c015760405162461bcd60e51b815260206004820152603a60248201527f5375706572546f6b656e3a20696e666c6174696f6e6172792f6465666c61746960448201527f6f6e61727920746f6b656e73206e6f7420737570706f727465640000000000006064820152608401610a96565b612c248b8a868c6001600160a01b03168e6001600160a01b031614158b8b6132ea565b886001600160a01b03167f25ca84076773b0455db53621c459ddc84fe40840e4932a62706a032566f399df85604051612c5f91815260200190565b60405180910390a25050505050505050505050565b6000612c9e7f360894a13ba1a3210667c828492db98dca3e2076cc3735a920a3ca505d382bbc5490565b6001600160a01b031603612cf45760405162461bcd60e51b815260206004820152601d60248201527f5555505350726f786961626c653a206e6f742075706772616461626c650000006044820152606401610a96565b806001600160a01b03166352d1902d6040518163ffffffff1660e01b8152600401602060405180830381865afa158015612d32573d6000803e3d6000fd5b505050506040513d601f19601f82011682018060405250810190612d5691906148df565b7f6bfbb132610e56cb96575dba244667b9d6dbfeffe22b68a79fa16f2d18eb001914612dd05760405162461bcd60e51b815260206004820152602360248201527f5555505350726f786961626c653a206e6f7420636f6d70617469626c65206c6f60448201526267696360e81b6064820152608401610a96565b6001600160a01b0381163003612e285760405162461bcd60e51b815260206004820152601960248201527f5555505350726f786961626c653a2070726f7879206c6f6f70000000000000006044820152606401610a96565b612e50817f360894a13ba1a3210667c828492db98dca3e2076cc3735a920a3ca505d382bbc55565b7fe011bc04c286c344a8fcbb8de77f953da762c3e25d8cdea984147fc4168a5dcc7f6bfbb132610e56cb96575dba244667b9d6dbfeffe22b68a79fa16f2d18eb0019604080519182526001600160a01b03841660208301520160405180910390a150565b60608167ffffffffffffffff811115612ecf57612ecf6141c1565b604051908082528060200260200182016040528015612ef8578160200160208202803683370190505b50905060005b82811015612f3d57600081850154905080838381518110612f2157612f216149d9565b602090810291909101015250612f3681614a1d565b9050612efe565b5092915050565b6000816001600160a01b0316836001600160a01b03161480612fb357506001600160a01b038316600090815260018501602052604090205460ff168015612fb357506001600160a01b03808316600090815260038601602090815260408083209387168352929052205460ff16155b80610eb457506001600160a01b03808316600090815260028601602090815260408083209387168352929052205460ff1690509392505050565b6001600160a01b0386166130525760405162461bcd60e51b815260206004820152602660248201527f5375706572546f6b656e3a207472616e736665722066726f6d207a65726f206160448201526564647265737360d01b6064820152608401610a96565b6001600160a01b0385166130b45760405162461bcd60e51b8152602060048201526024808201527f5375706572546f6b656e3a207472616e7366657220746f207a65726f206164646044820152637265737360e01b6064820152608401610a96565b6130c287878787878761374c565b6130d0878787878787613663565b61137587878787878787613873565b806001600160a01b0316826001600160a01b0316036131565760405162461bcd60e51b815260206004820152602d60248201527f4552433737374f70657261746f72733a20617574686f72697a696e672073656c60448201526c331030b99037b832b930ba37b960991b6064820152608401610a96565b6001600160a01b038116600090815260018401602052604090205460ff16156131ac576001600160a01b03918216600090815260039390930160209081526040808520929093168452529020805460ff19169055565b6001600160a01b0380831660009081526002850160209081526040808320938516835292905220805460ff19166001179055505050565b6001600160a01b0384166132445760405162461bcd60e51b815260206004820152602260248201527f5375706572546f6b656e3a206275726e2066726f6d207a65726f206164647265604482015261737360f01b6064820152608401610a96565b6132538585600086868661374c565b61325d8484613a03565b836001600160a01b0316856001600160a01b03167fa78a9be3a7b862d26933ad85fb11d80ef66b8f972d7cbba06621d583943a40988585856040516132a493929190614a53565b60405180910390a36040518381526000906001600160a01b038616907fddf252ad1be2c89b69c2b068fc378daa952ba7f163c4a11628f55a4df523b3ef90602001610986565b6001600160a01b0385166133405760405162461bcd60e51b815260206004820181905260248201527f5375706572546f6b656e3a206d696e7420746f207a65726f20616464726573736044820152606401610a96565b61334a8585613b57565b61335a8660008787868689613873565b846001600160a01b0316866001600160a01b03167f2fe5be0146f74c5bce36c0b80911af6c7d86ff27e89d5cfa61fc681327954e5d8685856040516133a193929190614a53565b60405180910390a36040518481526001600160a01b038616906000907fddf252ad1be2c89b69c2b068fc378daa952ba7f163c4a11628f55a4df523b3ef906020015b60405180910390a3505050505050565b600081848411156134175760405162461bcd60e51b8152600401610a96919061400f565b505050900390565b336001600160a01b0382160361348a5760405162461bcd60e51b815260206004820152602a60248201527f4552433737374f70657261746f72733a207265766f6b696e672073656c662061604482015269399037b832b930ba37b960b11b6064820152608401610a96565b6001600160a01b038116600090815260018401602052604090205460ff16156134e4576001600160a01b0380831660009081526003850160209081526040808320938516835292905220805460ff19166001179055505050565b6001600160a01b03918216600090815260029390930160209081526040808520929093168452529020805460ff19169055565b600e54600090819081906012600160a01b90910460ff16101561357657600e5461354c90600160a01b900460ff166012614a7e565b61355790600a614b85565b90506135638185614b94565b925061356f8184614bb6565b91506135cd565b600e546012600160a01b90910460ff1611156135c657600e546135a590601290600160a01b900460ff16614a7e565b6135b090600a614b85565b90506135bc8185614bb6565b92508391506135cd565b8391508192505b50915091565b6040516001600160a01b0383166024820152604481018290526115d490849063a9059cbb60e01b906064015b60408051601f198184030181529190526020810180517bffffffffffffffffffffffffffffffffffffffffffffffffffffffff167fffffffff0000000000000000000000000000000000000000000000000000000090931692909217909152613bb1565b613676858561367186612819565b613c83565b836001600160a01b0316856001600160a01b0316876001600160a01b03167f06b541ddaa720db2b10a4d0cdac39b8d360425fc073085fac19bc826146779878686866040516136c793929190614a53565b60405180910390a4836001600160a01b0316856001600160a01b03167fddf252ad1be2c89b69c2b068fc378daa952ba7f163c4a11628f55a4df523b3ef856040516133e391815260200190565b6040516001600160a01b03808516602483015283166044820152606481018290526115379085906323b872dd60e01b906084016135ff565b60405163555ddc6560e11b81526001600160a01b03861660048201527f29ddb589b1fb5fc7cf394961c1adf5f8c6454761adf795e67fe149f658abe8956024820152600090731820a4b7618bde71dce8cdc73aab6c95905fad249063aabbb8ca90604401602060405180830381865afa1580156137cd573d6000803e3d6000fd5b505050506040513d601f19601f820116820180604052508101906137f19190614a36565b90506001600160a01b0381161561137557604051633ad5cbc160e11b81526001600160a01b038216906375ab978290613838908a908a908a908a908a908a90600401614bd5565b600060405180830381600087803b15801561385257600080fd5b505af1158015613866573d6000803e3d6000fd5b5050505050505050505050565b60405163555ddc6560e11b81526001600160a01b03861660048201527fb281fc8c12954d22544db45de3159a39272895b169a852b314f9cc762e44c53b6024820152600090731820a4b7618bde71dce8cdc73aab6c95905fad249063aabbb8ca90604401602060405180830381865afa1580156138f4573d6000803e3d6000fd5b505050506040513d601f19601f820116820180604052508101906139189190614a36565b90506001600160a01b03811615613994576040516223de2960e01b81526001600160a01b038216906223de299061395d908b908b908b908b908b908b90600401614bd5565b600060405180830381600087803b15801561397757600080fd5b505af115801561398b573d6000803e3d6000fd5b505050506116c5565b81156116c5576001600160a01b0386163b156116c55760405162461bcd60e51b815260206004820152602860248201527f5375706572546f6b656e3a206e6f7420616e20455243373737546f6b656e73526044820152671958da5c1a595b9d60c21b6064820152608401610a96565b6000613a8b837f00000000000000000000000000000000000000000000000000000000000000006001600160a01b031663bbe4fd506040518163ffffffff1660e01b8152600401602060405180830381865afa158015613a67573d6000803e3d6000fd5b505050506040513d601f19601f8201168201806040525081019061079d91906148df565b50509050613a9882612819565b811215613afc5760405162461bcd60e51b815260206004820152602c60248201527f5375706572666c756964546f6b656e3a206275726e20616d6f756e742065786360448201526b656564732062616c616e636560a01b6064820152608401610a96565b613b0582612819565b6001600160a01b038416600090815260026020526040902054613b28919061486c565b6001600160a01b038416600090815260026020526040902055600354613b4f9083906149c2565b600355505050565b613b6081612819565b6001600160a01b038316600090815260026020526040902054613b83919061482c565b6001600160a01b038316600090815260026020526040902055600354613baa9082906149aa565b6003555050565b6000613c06826040518060400160405280602081526020017f5361666545524332303a206c6f772d6c6576656c2063616c6c206661696c6564815250856001600160a01b0316613dc69092919063ffffffff16565b8051909150156115d45780806020019051810190613c2491906147c7565b6115d45760405162461bcd60e51b815260206004820152602a60248201527f5361666545524332303a204552433230206f7065726174696f6e20646964206e6044820152691bdd081cdd58d8d9595960b21b6064820152608401610a96565b6000613ce7847f00000000000000000000000000000000000000000000000000000000000000006001600160a01b031663bbe4fd506040518163ffffffff1660e01b8152600401602060405180830381865afa158015613a67573d6000803e3d6000fd5b5050905081811215613d505760405162461bcd60e51b815260206004820152602c60248201527f5375706572666c756964546f6b656e3a206d6f766520616d6f756e742065786360448201526b656564732062616c616e636560a01b6064820152608401610a96565b6001600160a01b038416600090815260026020526040902054613d7490839061486c565b6001600160a01b038086166000908152600260205260408082209390935590851681522054613da490839061482c565b6001600160a01b03909316600090815260026020526040902092909255505050565b6060610eb48484600085856001600160a01b0385163b613e285760405162461bcd60e51b815260206004820152601d60248201527f416464726573733a2063616c6c20746f206e6f6e2d636f6e74726163740000006044820152606401610a96565b600080866001600160a01b03168587604051613e449190614c2e565b60006040518083038185875af1925050503d8060008114613e81576040519150601f19603f3d011682016040523d82523d6000602084013e613e86565b606091505b5091509150613e96828286613ea1565b979650505050505050565b60608315613eb0575081610eb7565b825115613ec05782518084602001fd5b8160405162461bcd60e51b8152600401610a96919061400f565b828054613ee690614731565b90600052602060002090601f016020900481019282613f085760008555613f4e565b82601f10613f215782800160ff19823516178555613f4e565b82800160010185558215613f4e579182015b82811115613f4e578235825591602001919060010190613f33565b506128839291505b808211156128835760008155600101613f56565b6020808252825182820181905260009190848201906040850190845b81811015613fab5783516001600160a01b031683529284019291840191600101613f86565b50909695505050505050565b60005b83811015613fd2578181015183820152602001613fba565b838111156115375750506000910152565b60008151808452613ffb816020860160208601613fb7565b601f01601f19169290920160200192915050565b602081526000610eb76020830184613fe3565b6001600160a01b03811681146109d757600080fd5b60008083601f84011261404957600080fd5b50813567ffffffffffffffff81111561406157600080fd5b6020830191508360208260051b850101111561407c57600080fd5b9250929050565b6000806000806060858703121561409957600080fd5b84356140a481614022565b935060208501359250604085013567ffffffffffffffff8111156140c757600080fd5b6140d387828801614037565b95989497509550505050565b600080604083850312156140f257600080fd5b82356140fd81614022565b946020939093013593505050565b60006020828403121561411d57600080fd5b5035919050565b60008060006040848603121561413957600080fd5b83359250602084013567ffffffffffffffff81111561415757600080fd5b61416386828701614037565b9497909650939450505050565b6000806000806080858703121561418657600080fd5b843561419181614022565b935060208501356141a181614022565b925060408501356141b181614022565b9396929550929360600135925050565b634e487b7160e01b600052604160045260246000fd5b604051601f8201601f1916810167ffffffffffffffff81118282101715614200576142006141c1565b604052919050565b600082601f83011261421957600080fd5b813567ffffffffffffffff811115614233576142336141c1565b614246601f8201601f19166020016141d7565b81815284602083860101111561425b57600080fd5b816020850160208301376000918101602001919091529392505050565b80151581146109d757600080fd5b600080600080600080600060e0888a0312156142a157600080fd5b87359650602088013567ffffffffffffffff8111156142bf57600080fd5b6142cb8a828b01614208565b96505060408801356142dc81614022565b945060608801356142ec81614278565b935060808801356142fc81614022565b9699959850939692959460a0840135945060c09093013592915050565b60008060006060848603121561432e57600080fd5b833561433981614022565b9250602084013561434981614022565b929592945050506040919091013590565b6000806040838503121561436d57600080fd5b50508035926020909101359150565b60006020828403121561438e57600080fd5b8135610eb781614022565b60008083601f8401126143ab57600080fd5b50813567ffffffffffffffff8111156143c357600080fd5b60208301915083602082850101111561407c57600080fd5b600080600080600080608087890312156143f457600080fd5b86356143ff81614022565b9550602087013560ff8116811461441557600080fd5b9450604087013567ffffffffffffffff8082111561443257600080fd5b61443e8a838b01614399565b9096509450606089013591508082111561445757600080fd5b5061446489828a01614399565b979a9699509497509295939492505050565b6000806000806080858703121561448c57600080fd5b843561449781614022565b935060208501356144a781614022565b93969395505050506040820135916060013590565b6020808252825182820181905260009190848201906040850190845b81811015613fab578351835292840192918401916001016144d8565b6000806000806060858703121561450a57600080fd5b843561451581614022565b935060208501359250604085013567ffffffffffffffff81111561453857600080fd5b6140d387828801614399565b600080600080600080600060a0888a03121561455f57600080fd5b873561456a81614022565b9650602088013561457a81614022565b955060408801359450606088013567ffffffffffffffff8082111561459e57600080fd5b6145aa8b838c01614399565b909650945060808a01359150808211156145c357600080fd5b506145d08a828b01614399565b989b979a50959850939692959293505050565b6000806000606084860312156145f857600080fd5b833561460381614022565b95602085013595506040909401359392505050565b60008060006060848603121561462d57600080fd5b833561463881614022565b925060208401359150604084013567ffffffffffffffff81111561465b57600080fd5b61466786828701614208565b9150509250925092565b6000806040838503121561468457600080fd5b823561468f81614022565b9150602083013561469f81614022565b809150509250929050565b600080600080600080608087890312156146c357600080fd5b86356146ce81614022565b955060208701359450604087013567ffffffffffffffff8082111561443257600080fd5b60008060006040848603121561470757600080fd5b83359250602084013567ffffffffffffffff81111561472557600080fd5b61416386828701614399565b600181811c9082168061474557607f821691505b60208210810361476557634e487b7160e01b600052602260045260246000fd5b50919050565b8381526040602082015281604082015260007f07ffffffffffffffffffffffffffffffffffffffffffffffffffffffffffffff8311156147aa57600080fd5b8260051b8085606085013760009201606001918252509392505050565b6000602082840312156147d957600080fd5b8151610eb781614278565b634e487b7160e01b600052601160045260246000fd5b6000600160ff1b820161480f5761480f6147e4565b5060000390565b634e487b7160e01b600052600160045260246000fd5b6000808212826001600160ff1b030384138115161561484d5761484d6147e4565b600160ff1b8390038412811615614866576148666147e4565b50500190565b60008083128015600160ff1b85018412161561488a5761488a6147e4565b836001600160ff1b030183138116156148a5576148a56147e4565b50500390565b8581526001600160a01b038516602082015283604082015282606082015260a060808201526000613e9660a0830184613fe3565b6000602082840312156148f157600080fd5b5051919050565b6000602080838503121561490b57600080fd5b825167ffffffffffffffff8082111561492357600080fd5b818501915085601f83011261493757600080fd5b815181811115614949576149496141c1565b8060051b915061495a8483016141d7565b818152918301840191848101908884111561497457600080fd5b938501935b8385101561499e578451925061498e83614022565b8282529385019390850190614979565b98975050505050505050565b600082198211156149bd576149bd6147e4565b500190565b6000828210156149d4576149d46147e4565b500390565b634e487b7160e01b600052603260045260246000fd5b600080600060608486031215614a0457600080fd5b8351925060208401519150604084015190509250925092565b600060018201614a2f57614a2f6147e4565b5060010190565b600060208284031215614a4857600080fd5b8151610eb781614022565b838152606060208201526000614a6c6060830185613fe3565b82810360408401526114b08185613fe3565b600060ff821660ff841680821015614a9857614a986147e4565b90039392505050565b600181815b80851115614adc578160001904821115614ac257614ac26147e4565b80851615614acf57918102915b93841c9390800290614aa6565b509250929050565b600082614af3575060016109a6565b81614b00575060006109a6565b8160018114614b165760028114614b2057614b3c565b60019150506109a6565b60ff841115614b3157614b316147e4565b50506001821b6109a6565b5060208310610133831016604e8410600b8410161715614b5f575081810a6109a6565b614b698383614aa1565b8060001904821115614b7d57614b7d6147e4565b029392505050565b6000610eb760ff841683614ae4565b600082614bb157634e487b7160e01b600052601260045260246000fd5b500490565b6000816000190483118215151615614bd057614bd06147e4565b500290565b60006001600160a01b038089168352808816602084015280871660408401525084606083015260c06080830152614c0f60c0830185613fe3565b82810360a0840152614c218185613fe3565b9998505050505050505050565b60008251614c40818460208701613fb7565b919091019291505056fe5375706572546f6b656e3a2064656372656173656420616c6c6f77616e63652062656c6f77207a65726f5375706572546f6b656e3a207472616e7366657220616d6f756e74206578636565647320616c6c6f77616e6365a2646970667358221220c5e9969745c82346de7539c904f3771a61cf0c46a48b969788ed9f3e3ac13bc664736f6c634300080e0033",
  "devdoc": {
    "kind": "dev",
    "methods": {
      "approve(address,uint256)": {
        "details": "Sets `amount` as the allowance of `spender` over the caller's tokens.",
        "returns": {
          "_0": "Returns Success a boolean value indicating whether the operation succeeded."
        }
      },
      "authorizeOperator(address)": {
        "details": "Make an account an operator of the caller. See {isOperatorFor}."
      },
      "balanceOf(address)": {
        "details": "Returns the amount of tokens owned by an account (`owner`)."
      },
      "burn(uint256,bytes)": {
        "details": "Destroys `amount` tokens from the caller's account, reducing the total supply. If a send hook is registered for the caller, the corresponding function will be called with `data` and empty `operatorData`. See {IERC777Sender}."
      },
      "createAgreement(bytes32,bytes32[])": {
        "details": "ISuperfluidToken.createAgreement implementation"
      },
      "decimals()": {
        "details": "Returns the number of decimals used to get its user representation. For example, if `decimals` equals `2`, a balance of `505` tokens should be displayed to a user as `5,05` (`505 / 10 ** 2`). Tokens usually opt for a value of 18, imitating the relationship between Ether and Wei. This is the value {ERC20} uses, unless {_setupDecimals} is called."
      },
      "decreaseAllowance(address,uint256)": {
        "details": "Atomically decreases the allowance granted to `spender` by the caller. This is an alternative to {approve} that can be used as a mitigation for problems described in {IERC20-approve}."
      },
      "defaultOperators()": {
        "details": "Returns the list of default operators. These accounts are operators for all token holders, even if {authorizeOperator} was never called on them. This list is immutable, but individual holders may revoke these via {revokeOperator}, in which case {isOperatorFor} will return false."
      },
      "downgrade(uint256)": {
        "details": "ISuperToken.downgrade implementation"
      },
      "getAccountActiveAgreements(address)": {
        "details": "ISuperfluidToken.getAccountActiveAgreements implementation"
      },
      "getAgreementData(address,bytes32,uint256)": {
        "details": "ISuperfluidToken.getAgreementData implementation"
      },
      "getAgreementStateSlot(address,address,uint256,uint256)": {
        "details": "ISuperfluidToken.getAgreementState implementation"
      },
      "getCodeAddress()": {
        "details": "Get current implementation code address."
      },
      "getHost()": {
        "details": "ISuperfluidToken.getHost implementation"
      },
      "getUnderlyingToken()": {
        "details": "ISuperfluidGovernance.getUnderlyingToken implementation"
      },
      "granularity()": {
        "details": "Returns the smallest part of the token that is not divisible. This         means all token operations (creation, movement and destruction) must have         amounts that are a multiple of this number."
      },
      "increaseAllowance(address,uint256)": {
        "details": "Atomically increases the allowance granted to `spender` by the caller. This is an alternative to {approve} that can be used as a mitigation for problems described in {IERC20-approve}."
      },
      "initialize(address,uint8,string,string)": {
        "details": "Initialize the contract"
      },
      "isAccountCritical(address,uint256)": {
        "details": "A critical account is when availableBalance < 0",
        "params": {
          "account": "The account to check",
          "timestamp": "The time we'd like to check if the account is critical (should use future)"
        },
        "returns": {
          "isCritical": "Whether the account is critical"
        }
      },
      "isAccountCriticalNow(address)": {
        "details": "A critical account is when availableBalance < 0",
        "params": {
          "account": "The account to check"
        },
        "returns": {
          "isCritical": "Whether the account is critical"
        }
      },
      "isAccountSolvent(address,uint256)": {
        "details": "An account is insolvent when the sum of deposits for a token can't cover the negative availableBalance",
        "params": {
          "account": "The account to check",
          "timestamp": "The time we'd like to check if the account is solvent (should use future)"
        },
        "returns": {
          "isSolvent": "True if the account is solvent, false otherwise"
        }
      },
      "isAccountSolventNow(address)": {
        "details": "An account is insolvent when the sum of deposits for a token can't cover the negative availableBalance",
        "params": {
          "account": "The account to check"
        },
        "returns": {
          "isSolvent": "True if the account is solvent, false otherwise"
        }
      },
      "isOperatorFor(address,address)": {
        "details": "Returns true if an account is an operator of `tokenHolder`. Operators can send and burn tokens on behalf of their owners. All accounts are their own operator. See {operatorSend} and {operatorBurn}."
      },
      "makeLiquidationPayoutsV2(bytes32,bytes,address,bool,address,uint256,int256)": {
        "details": "ISuperfluidToken.makeLiquidationPayoutsV2 implementation"
      },
      "name()": {
        "details": "Returns the name of the token."
      },
      "operationApprove(address,address,uint256)": {
        "details": "Perform ERC20 approve by host contract.",
        "params": {
          "account": "The account owner to be approved.",
          "amount": "Number of tokens to be approved.",
          "spender": "The spender of account owner's funds."
        }
      },
      "operationDowngrade(address,uint256)": {
        "details": "Downgrade ERC20 to SuperToken by host contract.",
        "params": {
          "account": "The account to be changed.",
          "amount": "Number of tokens to be downgraded (in 18 decimals)"
        }
      },
      "operationTransferFrom(address,address,address,uint256)": {
        "details": "Perform ERC20 transfer from by host contract.",
        "params": {
          "account": "The account to spend sender's funds.",
          "amount": "Number of tokens to be transferred.",
          "recipient": "The recipient of thefunds.",
          "spender": "The account where the funds is sent from."
        }
      },
      "operationUpgrade(address,uint256)": {
        "details": "Upgrade ERC20 to SuperToken by host contract.",
        "params": {
          "account": "The account to be changed.",
          "amount": "Number of tokens to be upgraded (in 18 decimals)"
        }
      },
      "operatorBurn(address,uint256,bytes,bytes)": {
        "details": "Destroys `amount` tokens from `account`, reducing the total supply. The caller must be an operator of `account`. If a send hook is registered for `account`, the corresponding function will be called with `data` and `operatorData`. See {IERC777Sender}."
      },
      "operatorSend(address,address,uint256,bytes,bytes)": {
        "details": "Moves `amount` tokens from `sender` to `recipient`. The caller must be an operator of `sender`. If send or receive hooks are registered for `sender` and `recipient`, the corresponding functions will be called with `data` and `operatorData`. See {IERC777Sender} and {IERC777Recipient}."
      },
      "proxiableUUID()": {
        "details": "Proxiable UUID marker function, this would help to avoid wrong logic      contract to be used for upgrading. NOTE: The semantics of the UUID deviates from the actual UUPS standard,       where it is equivalent of _IMPLEMENTATION_SLOT."
      },
      "realtimeBalanceOf(address,uint256)": {
        "details": "ISuperfluidToken.realtimeBalanceOf implementation"
      },
      "realtimeBalanceOfNow(address)": {
        "details": "ISuperfluidToken.realtimeBalanceOfNow implementation"
      },
      "revokeOperator(address)": {
        "details": "Revoke an account's operator status for the caller. See {isOperatorFor} and {defaultOperators}."
      },
      "selfApproveFor(address,address,uint256)": {
        "details": "Give `spender`, `amount` allowance to spend the tokens of `account`."
      },
      "selfBurn(address,uint256,bytes)": {
        "details": "Burn existing tokens for the account"
      },
      "selfMint(address,uint256,bytes)": {
        "details": "Mint new tokens for the account"
      },
      "send(address,uint256,bytes)": {
        "details": "Moves `amount` tokens from the caller's account to `recipient`.If send or receive hooks are registered for the caller and `recipient`,      the corresponding functions will be called with `data` and empty      `operatorData`. See {IERC777Sender} and {IERC777Recipient}."
      },
      "settleBalance(address,int256)": {
        "details": "ISuperfluidToken.settleBalance implementation"
      },
      "symbol()": {
        "details": "Returns the symbol of the token, usually a shorter version of the name."
      },
      "terminateAgreement(bytes32,uint256)": {
        "details": "ISuperfluidToken.terminateAgreement implementation"
      },
      "totalSupply()": {
        "details": "See {IERC20-totalSupply}."
      },
      "transfer(address,uint256)": {
        "details": "Moves `amount` tokens from the caller's account to `recipient`.",
        "returns": {
          "_0": "Returns Success a boolean value indicating whether the operation succeeded."
        }
      },
      "transferAll(address)": {
        "details": "Transfer all available balance from `msg.sender` to `recipient`"
      },
      "updateAgreementData(bytes32,bytes32[])": {
        "details": "ISuperfluidToken.updateAgreementData implementation"
      },
      "updateAgreementStateSlot(address,uint256,bytes32[])": {
        "details": "ISuperfluidToken.updateAgreementState implementation"
      },
      "upgrade(uint256)": {
        "details": "ISuperToken.upgrade implementation"
      },
      "upgradeTo(address,uint256,bytes)": {
        "details": "ISuperToken.upgradeTo implementation"
      }
    },
    "version": 1
  },
  "userdoc": {
    "kind": "user",
    "methods": {
      "isAccountCritical(address,uint256)": {
        "notice": "Check if account is critical"
      },
      "isAccountCriticalNow(address)": {
        "notice": "Check if account is critical now (current host.getNow())"
      },
      "isAccountSolvent(address,uint256)": {
        "notice": "Check if account is solvent"
      },
      "isAccountSolventNow(address)": {
        "notice": "Check if account is solvent now"
      }
    },
    "version": 1
  },
  "storageLayout": {
    "storage": [
      {
        "astId": 2335,
        "contract": "contracts/SuperAnyaToken.sol:SuperAnyaToken",
        "label": "_initialized",
        "offset": 0,
        "slot": "0",
        "type": "t_bool"
      },
      {
        "astId": 2338,
        "contract": "contracts/SuperAnyaToken.sol:SuperAnyaToken",
        "label": "_initializing",
        "offset": 1,
        "slot": "0",
        "type": "t_bool"
      },
      {
        "astId": 9113,
        "contract": "contracts/SuperAnyaToken.sol:SuperAnyaToken",
        "label": "_inactiveAgreementBitmap",
        "offset": 0,
        "slot": "1",
        "type": "t_mapping(t_address,t_uint256)"
      },
      {
        "astId": 9118,
        "contract": "contracts/SuperAnyaToken.sol:SuperAnyaToken",
        "label": "_balances",
        "offset": 0,
        "slot": "2",
        "type": "t_mapping(t_address,t_int256)"
      },
      {
        "astId": 9121,
        "contract": "contracts/SuperAnyaToken.sol:SuperAnyaToken",
        "label": "_totalSupply",
        "offset": 0,
        "slot": "3",
        "type": "t_uint256"
      },
      {
        "astId": 9123,
        "contract": "contracts/SuperAnyaToken.sol:SuperAnyaToken",
        "label": "_reserve4",
        "offset": 0,
        "slot": "4",
        "type": "t_uint256"
      },
      {
        "astId": 9125,
        "contract": "contracts/SuperAnyaToken.sol:SuperAnyaToken",
        "label": "_reserve5",
        "offset": 0,
        "slot": "5",
        "type": "t_uint256"
      },
      {
        "astId": 9127,
        "contract": "contracts/SuperAnyaToken.sol:SuperAnyaToken",
        "label": "_reserve6",
        "offset": 0,
        "slot": "6",
        "type": "t_uint256"
      },
      {
        "astId": 9129,
        "contract": "contracts/SuperAnyaToken.sol:SuperAnyaToken",
        "label": "_reserve7",
        "offset": 0,
        "slot": "7",
        "type": "t_uint256"
      },
      {
        "astId": 9131,
        "contract": "contracts/SuperAnyaToken.sol:SuperAnyaToken",
        "label": "_reserve8",
        "offset": 0,
        "slot": "8",
        "type": "t_uint256"
      },
      {
        "astId": 9133,
        "contract": "contracts/SuperAnyaToken.sol:SuperAnyaToken",
        "label": "_reserve9",
        "offset": 0,
        "slot": "9",
        "type": "t_uint256"
      },
      {
        "astId": 9135,
        "contract": "contracts/SuperAnyaToken.sol:SuperAnyaToken",
        "label": "_reserve10",
        "offset": 0,
        "slot": "10",
        "type": "t_uint256"
      },
      {
        "astId": 9137,
        "contract": "contracts/SuperAnyaToken.sol:SuperAnyaToken",
        "label": "_reserve11",
        "offset": 0,
        "slot": "11",
        "type": "t_uint256"
      },
      {
        "astId": 9139,
        "contract": "contracts/SuperAnyaToken.sol:SuperAnyaToken",
        "label": "_reserve12",
        "offset": 0,
        "slot": "12",
        "type": "t_uint256"
      },
      {
        "astId": 9141,
        "contract": "contracts/SuperAnyaToken.sol:SuperAnyaToken",
        "label": "_reserve13",
        "offset": 0,
        "slot": "13",
        "type": "t_uint256"
      },
      {
        "astId": 7542,
        "contract": "contracts/SuperAnyaToken.sol:SuperAnyaToken",
        "label": "_underlyingToken",
        "offset": 0,
        "slot": "14",
        "type": "t_contract(IERC20)3068"
      },
      {
        "astId": 7545,
        "contract": "contracts/SuperAnyaToken.sol:SuperAnyaToken",
        "label": "_underlyingDecimals",
        "offset": 20,
        "slot": "14",
        "type": "t_uint8"
      },
      {
        "astId": 7548,
        "contract": "contracts/SuperAnyaToken.sol:SuperAnyaToken",
        "label": "_name",
        "offset": 0,
        "slot": "15",
        "type": "t_string_storage"
      },
      {
        "astId": 7551,
        "contract": "contracts/SuperAnyaToken.sol:SuperAnyaToken",
        "label": "_symbol",
        "offset": 0,
        "slot": "16",
        "type": "t_string_storage"
      },
      {
        "astId": 7558,
        "contract": "contracts/SuperAnyaToken.sol:SuperAnyaToken",
        "label": "_allowances",
        "offset": 0,
        "slot": "17",
        "type": "t_mapping(t_address,t_mapping(t_address,t_uint256))"
      },
      {
        "astId": 7562,
        "contract": "contracts/SuperAnyaToken.sol:SuperAnyaToken",
        "label": "_operators",
        "offset": 0,
        "slot": "18",
        "type": "t_struct(Operators)7101_storage"
      },
      {
        "astId": 7564,
        "contract": "contracts/SuperAnyaToken.sol:SuperAnyaToken",
        "label": "_reserve22",
        "offset": 0,
        "slot": "22",
        "type": "t_uint256"
      },
      {
        "astId": 7566,
        "contract": "contracts/SuperAnyaToken.sol:SuperAnyaToken",
        "label": "_reserve23",
        "offset": 0,
        "slot": "23",
        "type": "t_uint256"
      },
      {
        "astId": 7568,
        "contract": "contracts/SuperAnyaToken.sol:SuperAnyaToken",
        "label": "_reserve24",
        "offset": 0,
        "slot": "24",
        "type": "t_uint256"
      },
      {
        "astId": 7570,
        "contract": "contracts/SuperAnyaToken.sol:SuperAnyaToken",
        "label": "_reserve25",
        "offset": 0,
        "slot": "25",
        "type": "t_uint256"
      },
      {
        "astId": 7572,
        "contract": "contracts/SuperAnyaToken.sol:SuperAnyaToken",
        "label": "_reserve26",
        "offset": 0,
        "slot": "26",
        "type": "t_uint256"
      },
      {
        "astId": 7574,
        "contract": "contracts/SuperAnyaToken.sol:SuperAnyaToken",
        "label": "_reserve27",
        "offset": 0,
        "slot": "27",
        "type": "t_uint256"
      },
      {
        "astId": 7576,
        "contract": "contracts/SuperAnyaToken.sol:SuperAnyaToken",
        "label": "_reserve28",
        "offset": 0,
        "slot": "28",
        "type": "t_uint256"
      },
      {
        "astId": 7578,
        "contract": "contracts/SuperAnyaToken.sol:SuperAnyaToken",
        "label": "_reserve29",
        "offset": 0,
        "slot": "29",
        "type": "t_uint256"
      },
      {
        "astId": 7580,
        "contract": "contracts/SuperAnyaToken.sol:SuperAnyaToken",
        "label": "_reserve30",
        "offset": 0,
        "slot": "30",
        "type": "t_uint256"
      },
      {
        "astId": 7582,
        "contract": "contracts/SuperAnyaToken.sol:SuperAnyaToken",
        "label": "_reserve31",
        "offset": 0,
        "slot": "31",
        "type": "t_uint256"
      }
    ],
    "types": {
      "t_address": {
        "encoding": "inplace",
        "label": "address",
        "numberOfBytes": "20"
      },
      "t_array(t_address)dyn_storage": {
        "base": "t_address",
        "encoding": "dynamic_array",
        "label": "address[]",
        "numberOfBytes": "32"
      },
      "t_bool": {
        "encoding": "inplace",
        "label": "bool",
        "numberOfBytes": "1"
      },
      "t_contract(IERC20)3068": {
        "encoding": "inplace",
        "label": "contract IERC20",
        "numberOfBytes": "20"
      },
      "t_int256": {
        "encoding": "inplace",
        "label": "int256",
        "numberOfBytes": "32"
      },
      "t_mapping(t_address,t_bool)": {
        "encoding": "mapping",
        "key": "t_address",
        "label": "mapping(address => bool)",
        "numberOfBytes": "32",
        "value": "t_bool"
      },
      "t_mapping(t_address,t_int256)": {
        "encoding": "mapping",
        "key": "t_address",
        "label": "mapping(address => int256)",
        "numberOfBytes": "32",
        "value": "t_int256"
      },
      "t_mapping(t_address,t_mapping(t_address,t_bool))": {
        "encoding": "mapping",
        "key": "t_address",
        "label": "mapping(address => mapping(address => bool))",
        "numberOfBytes": "32",
        "value": "t_mapping(t_address,t_bool)"
      },
      "t_mapping(t_address,t_mapping(t_address,t_uint256))": {
        "encoding": "mapping",
        "key": "t_address",
        "label": "mapping(address => mapping(address => uint256))",
        "numberOfBytes": "32",
        "value": "t_mapping(t_address,t_uint256)"
      },
      "t_mapping(t_address,t_uint256)": {
        "encoding": "mapping",
        "key": "t_address",
        "label": "mapping(address => uint256)",
        "numberOfBytes": "32",
        "value": "t_uint256"
      },
      "t_string_storage": {
        "encoding": "bytes",
        "label": "string",
        "numberOfBytes": "32"
      },
      "t_struct(Operators)7101_storage": {
        "encoding": "inplace",
        "label": "struct ERC777Helper.Operators",
        "members": [
          {
            "astId": 7084,
            "contract": "contracts/SuperAnyaToken.sol:SuperAnyaToken",
            "label": "defaultOperatorsArray",
            "offset": 0,
            "slot": "0",
            "type": "t_array(t_address)dyn_storage"
          },
          {
            "astId": 7088,
            "contract": "contracts/SuperAnyaToken.sol:SuperAnyaToken",
            "label": "defaultOperators",
            "offset": 0,
            "slot": "1",
            "type": "t_mapping(t_address,t_bool)"
          },
          {
            "astId": 7094,
            "contract": "contracts/SuperAnyaToken.sol:SuperAnyaToken",
            "label": "operators",
            "offset": 0,
            "slot": "2",
            "type": "t_mapping(t_address,t_mapping(t_address,t_bool))"
          },
          {
            "astId": 7100,
            "contract": "contracts/SuperAnyaToken.sol:SuperAnyaToken",
            "label": "revokedDefaultOperators",
            "offset": 0,
            "slot": "3",
            "type": "t_mapping(t_address,t_mapping(t_address,t_bool))"
          }
        ],
        "numberOfBytes": "128"
      },
      "t_uint256": {
        "encoding": "inplace",
        "label": "uint256",
        "numberOfBytes": "32"
      },
      "t_uint8": {
        "encoding": "inplace",
        "label": "uint8",
        "numberOfBytes": "1"
      }
    }
  }
}